{
	"Voting.sol": {
		"Voting": {
			"abi": [
				{
					"inputs": [
						{
							"internalType": "string",
							"name": "candidate",
							"type": "string"
						}
					],
					"name": "getVotes",
					"outputs": [
						{
							"internalType": "uint256",
							"name": "",
							"type": "uint256"
						}
					],
					"stateMutability": "view",
					"type": "function"
				},
				{
					"inputs": [],
					"name": "resetVotes",
					"outputs": [],
					"stateMutability": "nonpayable",
					"type": "function"
				},
				{
					"inputs": [
						{
							"internalType": "string",
							"name": "candidate",
							"type": "string"
						}
					],
					"name": "vote",
					"outputs": [],
					"stateMutability": "nonpayable",
					"type": "function"
				}
			],
			"devdoc": {
				"kind": "dev",
				"methods": {},
				"version": 1
			},
			"evm": {
				"assembly": "    /* \"Voting.sol\":60:1237  contract Voting {... */\n  mstore(0x40, 0x80)\n  callvalue\n  dup1\n  iszero\n  tag_1\n  jumpi\n  0x00\n  dup1\n  revert\ntag_1:\n  pop\n  dataSize(sub_0)\n  dup1\n  dataOffset(sub_0)\n  0x00\n  codecopy\n  0x00\n  return\nstop\n\nsub_0: assembly {\n        /* \"Voting.sol\":60:1237  contract Voting {... */\n      mstore(0x40, 0x80)\n      callvalue\n      dup1\n      iszero\n      tag_1\n      jumpi\n      0x00\n      dup1\n      revert\n    tag_1:\n      pop\n      jumpi(tag_2, lt(calldatasize, 0x04))\n      shr(0xe0, calldataload(0x00))\n      dup1\n      0x805265e5\n      eq\n      tag_3\n      jumpi\n      dup1\n      0xb9830ff1\n      eq\n      tag_4\n      jumpi\n      dup1\n      0xfc36e15b\n      eq\n      tag_5\n      jumpi\n    tag_2:\n      0x00\n      dup1\n      revert\n        /* \"Voting.sol\":836:1032  function getVotes(string memory candidate) public view returns (uint256) {... */\n    tag_3:\n      tag_6\n      0x04\n      dup1\n      calldatasize\n      sub\n      dup2\n      add\n      swap1\n      tag_7\n      swap2\n      swap1\n      tag_8\n      jump\t// in\n    tag_7:\n      tag_9\n      jump\t// in\n    tag_6:\n      mload(0x40)\n      tag_10\n      swap2\n      swap1\n      tag_11\n      jump\t// in\n    tag_10:\n      mload(0x40)\n      dup1\n      swap2\n      sub\n      swap1\n      return\n        /* \"Voting.sol\":1086:1232  function resetVotes() public {... */\n    tag_4:\n      tag_12\n      tag_13\n      jump\t// in\n    tag_12:\n      stop\n        /* \"Voting.sol\":393:785  function vote(string memory candidate) public {... */\n    tag_5:\n      tag_14\n      0x04\n      dup1\n      calldatasize\n      sub\n      dup2\n      add\n      swap1\n      tag_15\n      swap2\n      swap1\n      tag_8\n      jump\t// in\n    tag_15:\n      tag_16\n      jump\t// in\n    tag_14:\n      stop\n        /* \"Voting.sol\":836:1032  function getVotes(string memory candidate) public view returns (uint256) {... */\n    tag_9:\n        /* \"Voting.sol\":900:907  uint256 */\n      0x00\n        /* \"Voting.sol\":954:955  0 */\n      dup1\n        /* \"Voting.sol\":934:943  candidate */\n      dup3\n        /* \"Voting.sol\":928:951  bytes(candidate).length */\n      mload\n        /* \"Voting.sol\":928:955  bytes(candidate).length > 0 */\n      gt\n        /* \"Voting.sol\":920:990  require(bytes(candidate).length > 0, \"Candidate name cannot be empty\") */\n      tag_18\n      jumpi\n      mload(0x40)\n      0x08c379a000000000000000000000000000000000000000000000000000000000\n      dup2\n      mstore\n      0x04\n      add\n      tag_19\n      swap1\n      tag_20\n      jump\t// in\n    tag_19:\n      mload(0x40)\n      dup1\n      swap2\n      sub\n      swap1\n      revert\n    tag_18:\n        /* \"Voting.sol\":1008:1013  votes */\n      0x00\n        /* \"Voting.sol\":1014:1023  candidate */\n      dup3\n        /* \"Voting.sol\":1008:1024  votes[candidate] */\n      mload(0x40)\n      tag_21\n      swap2\n      swap1\n      tag_22\n      jump\t// in\n    tag_21:\n      swap1\n      dup2\n      mstore\n      0x20\n      add\n      mload(0x40)\n      dup1\n      swap2\n      sub\n      swap1\n      keccak256\n      sload\n        /* \"Voting.sol\":1001:1024  return votes[candidate] */\n      swap1\n      pop\n        /* \"Voting.sol\":836:1032  function getVotes(string memory candidate) public view returns (uint256) {... */\n      swap2\n      swap1\n      pop\n      jump\t// out\n        /* \"Voting.sol\":1086:1232  function resetVotes() public {... */\n    tag_13:\n        /* \"Voting.sol\":1131:1140  uint256 i */\n      0x00\n        /* \"Voting.sol\":1126:1225  for (uint256 i = 0; i < candidates.length; i++) {... */\n    tag_24:\n        /* \"Voting.sol\":1150:1160  candidates */\n      0x01\n        /* \"Voting.sol\":1150:1167  candidates.length */\n      dup1\n      sload\n      swap1\n      pop\n        /* \"Voting.sol\":1146:1147  i */\n      dup2\n        /* \"Voting.sol\":1146:1167  i < candidates.length */\n      lt\n        /* \"Voting.sol\":1126:1225  for (uint256 i = 0; i < candidates.length; i++) {... */\n      iszero\n      tag_25\n      jumpi\n        /* \"Voting.sol\":1212:1213  0 */\n      0x00\n        /* \"Voting.sol\":1189:1194  votes */\n      dup1\n        /* \"Voting.sol\":1195:1205  candidates */\n      0x01\n        /* \"Voting.sol\":1206:1207  i */\n      dup4\n        /* \"Voting.sol\":1195:1208  candidates[i] */\n      dup2\n      sload\n      dup2\n      lt\n      tag_27\n      jumpi\n      tag_28\n      tag_29\n      jump\t// in\n    tag_28:\n    tag_27:\n      swap1\n      0x00\n      mstore\n      keccak256(0x00, 0x20)\n      add\n        /* \"Voting.sol\":1189:1209  votes[candidates[i]] */\n      mload(0x40)\n      tag_31\n      swap2\n      swap1\n      tag_32\n      jump\t// in\n    tag_31:\n      swap1\n      dup2\n      mstore\n      0x20\n      add\n      mload(0x40)\n      dup1\n      swap2\n      sub\n      swap1\n      keccak256\n        /* \"Voting.sol\":1189:1213  votes[candidates[i]] = 0 */\n      dup2\n      swap1\n      sstore\n      pop\n        /* \"Voting.sol\":1169:1172  i++ */\n      dup1\n      dup1\n      0x01\n      add\n      swap2\n      pop\n      pop\n        /* \"Voting.sol\":1126:1225  for (uint256 i = 0; i < candidates.length; i++) {... */\n      jump(tag_24)\n    tag_25:\n      pop\n        /* \"Voting.sol\":1086:1232  function resetVotes() public {... */\n      jump\t// out\n        /* \"Voting.sol\":393:785  function vote(string memory candidate) public {... */\n    tag_16:\n        /* \"Voting.sol\":485:486  0 */\n      0x00\n        /* \"Voting.sol\":465:474  candidate */\n      dup2\n        /* \"Voting.sol\":459:482  bytes(candidate).length */\n      mload\n        /* \"Voting.sol\":459:486  bytes(candidate).length > 0 */\n      gt\n        /* \"Voting.sol\":451:521  require(bytes(candidate).length > 0, \"Candidate name cannot be empty\") */\n      tag_34\n      jumpi\n      mload(0x40)\n      0x08c379a000000000000000000000000000000000000000000000000000000000\n      dup2\n      mstore\n      0x04\n      add\n      tag_35\n      swap1\n      tag_20\n      jump\t// in\n    tag_35:\n      mload(0x40)\n      dup1\n      swap2\n      sub\n      swap1\n      revert\n    tag_34:\n        /* \"Voting.sol\":598:613  candidateExists */\n      0x02\n        /* \"Voting.sol\":614:623  candidate */\n      dup2\n        /* \"Voting.sol\":598:624  candidateExists[candidate] */\n      mload(0x40)\n      tag_36\n      swap2\n      swap1\n      tag_22\n      jump\t// in\n    tag_36:\n      swap1\n      dup2\n      mstore\n      0x20\n      add\n      mload(0x40)\n      dup1\n      swap2\n      sub\n      swap1\n      keccak256\n      0x00\n      swap1\n      sload\n      swap1\n      0x0100\n      exp\n      swap1\n      div\n      0xff\n      and\n        /* \"Voting.sol\":593:727  if (!candidateExists[candidate]) {... */\n      tag_37\n      jumpi\n        /* \"Voting.sol\":641:651  candidates */\n      0x01\n        /* \"Voting.sol\":657:666  candidate */\n      dup2\n        /* \"Voting.sol\":641:667  candidates.push(candidate) */\n      swap1\n      dup1\n      0x01\n      dup2\n      sload\n      add\n      dup1\n      dup3\n      sstore\n      dup1\n      swap2\n      pop\n      pop\n      0x01\n      swap1\n      sub\n      swap1\n      0x00\n      mstore\n      keccak256(0x00, 0x20)\n      add\n      0x00\n      swap1\n      swap2\n      swap1\n      swap2\n      swap1\n      swap2\n      pop\n      swap1\n      dup2\n      tag_39\n      swap2\n      swap1\n      tag_40\n      jump\t// in\n    tag_39:\n      pop\n        /* \"Voting.sol\":711:715  true */\n      0x01\n        /* \"Voting.sol\":682:697  candidateExists */\n      0x02\n        /* \"Voting.sol\":698:707  candidate */\n      dup3\n        /* \"Voting.sol\":682:708  candidateExists[candidate] */\n      mload(0x40)\n      tag_41\n      swap2\n      swap1\n      tag_22\n      jump\t// in\n    tag_41:\n      swap1\n      dup2\n      mstore\n      0x20\n      add\n      mload(0x40)\n      dup1\n      swap2\n      sub\n      swap1\n      keccak256\n      0x00\n        /* \"Voting.sol\":682:715  candidateExists[candidate] = true */\n      0x0100\n      exp\n      dup2\n      sload\n      dup2\n      0xff\n      mul\n      not\n      and\n      swap1\n      dup4\n      iszero\n      iszero\n      mul\n      or\n      swap1\n      sstore\n      pop\n        /* \"Voting.sol\":593:727  if (!candidateExists[candidate]) {... */\n    tag_37:\n        /* \"Voting.sol\":776:777  1 */\n      0x01\n        /* \"Voting.sol\":757:762  votes */\n      0x00\n        /* \"Voting.sol\":763:772  candidate */\n      dup3\n        /* \"Voting.sol\":757:773  votes[candidate] */\n      mload(0x40)\n      tag_42\n      swap2\n      swap1\n      tag_22\n      jump\t// in\n    tag_42:\n      swap1\n      dup2\n      mstore\n      0x20\n      add\n      mload(0x40)\n      dup1\n      swap2\n      sub\n      swap1\n      keccak256\n      sload\n        /* \"Voting.sol\":757:777  votes[candidate] + 1 */\n      tag_43\n      swap2\n      swap1\n      tag_44\n      jump\t// in\n    tag_43:\n        /* \"Voting.sol\":738:743  votes */\n      0x00\n        /* \"Voting.sol\":744:753  candidate */\n      dup3\n        /* \"Voting.sol\":738:754  votes[candidate] */\n      mload(0x40)\n      tag_45\n      swap2\n      swap1\n      tag_22\n      jump\t// in\n    tag_45:\n      swap1\n      dup2\n      mstore\n      0x20\n      add\n      mload(0x40)\n      dup1\n      swap2\n      sub\n      swap1\n      keccak256\n        /* \"Voting.sol\":738:777  votes[candidate] = votes[candidate] + 1 */\n      dup2\n      swap1\n      sstore\n      pop\n        /* \"Voting.sol\":393:785  function vote(string memory candidate) public {... */\n      pop\n      jump\t// out\n        /* \"#utility.yul\":7:82   */\n    tag_46:\n        /* \"#utility.yul\":40:46   */\n      0x00\n        /* \"#utility.yul\":73:75   */\n      0x40\n        /* \"#utility.yul\":67:76   */\n      mload\n        /* \"#utility.yul\":57:76   */\n      swap1\n      pop\n        /* \"#utility.yul\":7:82   */\n      swap1\n      jump\t// out\n        /* \"#utility.yul\":88:205   */\n    tag_47:\n        /* \"#utility.yul\":197:198   */\n      0x00\n        /* \"#utility.yul\":194:195   */\n      dup1\n        /* \"#utility.yul\":187:199   */\n      revert\n        /* \"#utility.yul\":211:328   */\n    tag_48:\n        /* \"#utility.yul\":320:321   */\n      0x00\n        /* \"#utility.yul\":317:318   */\n      dup1\n        /* \"#utility.yul\":310:322   */\n      revert\n        /* \"#utility.yul\":334:451   */\n    tag_49:\n        /* \"#utility.yul\":443:444   */\n      0x00\n        /* \"#utility.yul\":440:441   */\n      dup1\n        /* \"#utility.yul\":433:445   */\n      revert\n        /* \"#utility.yul\":457:574   */\n    tag_50:\n        /* \"#utility.yul\":566:567   */\n      0x00\n        /* \"#utility.yul\":563:564   */\n      dup1\n        /* \"#utility.yul\":556:568   */\n      revert\n        /* \"#utility.yul\":580:682   */\n    tag_51:\n        /* \"#utility.yul\":621:627   */\n      0x00\n        /* \"#utility.yul\":672:674   */\n      0x1f\n        /* \"#utility.yul\":668:675   */\n      not\n        /* \"#utility.yul\":663:665   */\n      0x1f\n        /* \"#utility.yul\":656:661   */\n      dup4\n        /* \"#utility.yul\":652:666   */\n      add\n        /* \"#utility.yul\":648:676   */\n      and\n        /* \"#utility.yul\":638:676   */\n      swap1\n      pop\n        /* \"#utility.yul\":580:682   */\n      swap2\n      swap1\n      pop\n      jump\t// out\n        /* \"#utility.yul\":688:868   */\n    tag_52:\n        /* \"#utility.yul\":736:813   */\n      0x4e487b7100000000000000000000000000000000000000000000000000000000\n        /* \"#utility.yul\":733:734   */\n      0x00\n        /* \"#utility.yul\":726:814   */\n      mstore\n        /* \"#utility.yul\":833:837   */\n      0x41\n        /* \"#utility.yul\":830:831   */\n      0x04\n        /* \"#utility.yul\":823:838   */\n      mstore\n        /* \"#utility.yul\":857:861   */\n      0x24\n        /* \"#utility.yul\":854:855   */\n      0x00\n        /* \"#utility.yul\":847:862   */\n      revert\n        /* \"#utility.yul\":874:1155   */\n    tag_53:\n        /* \"#utility.yul\":957:984   */\n      tag_96\n        /* \"#utility.yul\":979:983   */\n      dup3\n        /* \"#utility.yul\":957:984   */\n      tag_51\n      jump\t// in\n    tag_96:\n        /* \"#utility.yul\":949:955   */\n      dup2\n        /* \"#utility.yul\":945:985   */\n      add\n        /* \"#utility.yul\":1087:1093   */\n      dup2\n        /* \"#utility.yul\":1075:1085   */\n      dup2\n        /* \"#utility.yul\":1072:1094   */\n      lt\n        /* \"#utility.yul\":1051:1069   */\n      0xffffffffffffffff\n        /* \"#utility.yul\":1039:1049   */\n      dup3\n        /* \"#utility.yul\":1036:1070   */\n      gt\n        /* \"#utility.yul\":1033:1095   */\n      or\n        /* \"#utility.yul\":1030:1118   */\n      iszero\n      tag_97\n      jumpi\n        /* \"#utility.yul\":1098:1116   */\n      tag_98\n      tag_52\n      jump\t// in\n    tag_98:\n        /* \"#utility.yul\":1030:1118   */\n    tag_97:\n        /* \"#utility.yul\":1138:1148   */\n      dup1\n        /* \"#utility.yul\":1134:1136   */\n      0x40\n        /* \"#utility.yul\":1127:1149   */\n      mstore\n        /* \"#utility.yul\":917:1155   */\n      pop\n        /* \"#utility.yul\":874:1155   */\n      pop\n      pop\n      jump\t// out\n        /* \"#utility.yul\":1161:1290   */\n    tag_54:\n        /* \"#utility.yul\":1195:1201   */\n      0x00\n        /* \"#utility.yul\":1222:1242   */\n      tag_100\n      tag_46\n      jump\t// in\n    tag_100:\n        /* \"#utility.yul\":1212:1242   */\n      swap1\n      pop\n        /* \"#utility.yul\":1251:1284   */\n      tag_101\n        /* \"#utility.yul\":1279:1283   */\n      dup3\n        /* \"#utility.yul\":1271:1277   */\n      dup3\n        /* \"#utility.yul\":1251:1284   */\n      tag_53\n      jump\t// in\n    tag_101:\n        /* \"#utility.yul\":1161:1290   */\n      swap2\n      swap1\n      pop\n      jump\t// out\n        /* \"#utility.yul\":1296:1604   */\n    tag_55:\n        /* \"#utility.yul\":1358:1362   */\n      0x00\n        /* \"#utility.yul\":1448:1466   */\n      0xffffffffffffffff\n        /* \"#utility.yul\":1440:1446   */\n      dup3\n        /* \"#utility.yul\":1437:1467   */\n      gt\n        /* \"#utility.yul\":1434:1490   */\n      iszero\n      tag_103\n      jumpi\n        /* \"#utility.yul\":1470:1488   */\n      tag_104\n      tag_52\n      jump\t// in\n    tag_104:\n        /* \"#utility.yul\":1434:1490   */\n    tag_103:\n        /* \"#utility.yul\":1508:1537   */\n      tag_105\n        /* \"#utility.yul\":1530:1536   */\n      dup3\n        /* \"#utility.yul\":1508:1537   */\n      tag_51\n      jump\t// in\n    tag_105:\n        /* \"#utility.yul\":1500:1537   */\n      swap1\n      pop\n        /* \"#utility.yul\":1592:1596   */\n      0x20\n        /* \"#utility.yul\":1586:1590   */\n      dup2\n        /* \"#utility.yul\":1582:1597   */\n      add\n        /* \"#utility.yul\":1574:1597   */\n      swap1\n      pop\n        /* \"#utility.yul\":1296:1604   */\n      swap2\n      swap1\n      pop\n      jump\t// out\n        /* \"#utility.yul\":1610:1758   */\n    tag_56:\n        /* \"#utility.yul\":1708:1714   */\n      dup3\n        /* \"#utility.yul\":1703:1706   */\n      dup2\n        /* \"#utility.yul\":1698:1701   */\n      dup4\n        /* \"#utility.yul\":1685:1715   */\n      calldatacopy\n        /* \"#utility.yul\":1749:1750   */\n      0x00\n        /* \"#utility.yul\":1740:1746   */\n      dup4\n        /* \"#utility.yul\":1735:1738   */\n      dup4\n        /* \"#utility.yul\":1731:1747   */\n      add\n        /* \"#utility.yul\":1724:1751   */\n      mstore\n        /* \"#utility.yul\":1610:1758   */\n      pop\n      pop\n      pop\n      jump\t// out\n        /* \"#utility.yul\":1764:2189   */\n    tag_57:\n        /* \"#utility.yul\":1842:1847   */\n      0x00\n        /* \"#utility.yul\":1867:1933   */\n      tag_108\n        /* \"#utility.yul\":1883:1932   */\n      tag_109\n        /* \"#utility.yul\":1925:1931   */\n      dup5\n        /* \"#utility.yul\":1883:1932   */\n      tag_55\n      jump\t// in\n    tag_109:\n        /* \"#utility.yul\":1867:1933   */\n      tag_54\n      jump\t// in\n    tag_108:\n        /* \"#utility.yul\":1858:1933   */\n      swap1\n      pop\n        /* \"#utility.yul\":1956:1962   */\n      dup3\n        /* \"#utility.yul\":1949:1954   */\n      dup2\n        /* \"#utility.yul\":1942:1963   */\n      mstore\n        /* \"#utility.yul\":1994:1998   */\n      0x20\n        /* \"#utility.yul\":1987:1992   */\n      dup2\n        /* \"#utility.yul\":1983:1999   */\n      add\n        /* \"#utility.yul\":2032:2035   */\n      dup5\n        /* \"#utility.yul\":2023:2029   */\n      dup5\n        /* \"#utility.yul\":2018:2021   */\n      dup5\n        /* \"#utility.yul\":2014:2030   */\n      add\n        /* \"#utility.yul\":2011:2036   */\n      gt\n        /* \"#utility.yul\":2008:2120   */\n      iszero\n      tag_110\n      jumpi\n        /* \"#utility.yul\":2039:2118   */\n      tag_111\n      tag_50\n      jump\t// in\n    tag_111:\n        /* \"#utility.yul\":2008:2120   */\n    tag_110:\n        /* \"#utility.yul\":2129:2183   */\n      tag_112\n        /* \"#utility.yul\":2176:2182   */\n      dup5\n        /* \"#utility.yul\":2171:2174   */\n      dup3\n        /* \"#utility.yul\":2166:2169   */\n      dup6\n        /* \"#utility.yul\":2129:2183   */\n      tag_56\n      jump\t// in\n    tag_112:\n        /* \"#utility.yul\":1848:2189   */\n      pop\n        /* \"#utility.yul\":1764:2189   */\n      swap4\n      swap3\n      pop\n      pop\n      pop\n      jump\t// out\n        /* \"#utility.yul\":2209:2549   */\n    tag_58:\n        /* \"#utility.yul\":2265:2270   */\n      0x00\n        /* \"#utility.yul\":2314:2317   */\n      dup3\n        /* \"#utility.yul\":2307:2311   */\n      0x1f\n        /* \"#utility.yul\":2299:2305   */\n      dup4\n        /* \"#utility.yul\":2295:2312   */\n      add\n        /* \"#utility.yul\":2291:2318   */\n      slt\n        /* \"#utility.yul\":2281:2403   */\n      tag_114\n      jumpi\n        /* \"#utility.yul\":2322:2401   */\n      tag_115\n      tag_49\n      jump\t// in\n    tag_115:\n        /* \"#utility.yul\":2281:2403   */\n    tag_114:\n        /* \"#utility.yul\":2439:2445   */\n      dup2\n        /* \"#utility.yul\":2426:2446   */\n      calldataload\n        /* \"#utility.yul\":2464:2543   */\n      tag_116\n        /* \"#utility.yul\":2539:2542   */\n      dup5\n        /* \"#utility.yul\":2531:2537   */\n      dup3\n        /* \"#utility.yul\":2524:2528   */\n      0x20\n        /* \"#utility.yul\":2516:2522   */\n      dup7\n        /* \"#utility.yul\":2512:2529   */\n      add\n        /* \"#utility.yul\":2464:2543   */\n      tag_57\n      jump\t// in\n    tag_116:\n        /* \"#utility.yul\":2455:2543   */\n      swap2\n      pop\n        /* \"#utility.yul\":2271:2549   */\n      pop\n        /* \"#utility.yul\":2209:2549   */\n      swap3\n      swap2\n      pop\n      pop\n      jump\t// out\n        /* \"#utility.yul\":2555:3064   */\n    tag_8:\n        /* \"#utility.yul\":2624:2630   */\n      0x00\n        /* \"#utility.yul\":2673:2675   */\n      0x20\n        /* \"#utility.yul\":2661:2670   */\n      dup3\n        /* \"#utility.yul\":2652:2659   */\n      dup5\n        /* \"#utility.yul\":2648:2671   */\n      sub\n        /* \"#utility.yul\":2644:2676   */\n      slt\n        /* \"#utility.yul\":2641:2760   */\n      iszero\n      tag_118\n      jumpi\n        /* \"#utility.yul\":2679:2758   */\n      tag_119\n      tag_47\n      jump\t// in\n    tag_119:\n        /* \"#utility.yul\":2641:2760   */\n    tag_118:\n        /* \"#utility.yul\":2827:2828   */\n      0x00\n        /* \"#utility.yul\":2816:2825   */\n      dup3\n        /* \"#utility.yul\":2812:2829   */\n      add\n        /* \"#utility.yul\":2799:2830   */\n      calldataload\n        /* \"#utility.yul\":2857:2875   */\n      0xffffffffffffffff\n        /* \"#utility.yul\":2849:2855   */\n      dup2\n        /* \"#utility.yul\":2846:2876   */\n      gt\n        /* \"#utility.yul\":2843:2960   */\n      iszero\n      tag_120\n      jumpi\n        /* \"#utility.yul\":2879:2958   */\n      tag_121\n      tag_48\n      jump\t// in\n    tag_121:\n        /* \"#utility.yul\":2843:2960   */\n    tag_120:\n        /* \"#utility.yul\":2984:3047   */\n      tag_122\n        /* \"#utility.yul\":3039:3046   */\n      dup5\n        /* \"#utility.yul\":3030:3036   */\n      dup3\n        /* \"#utility.yul\":3019:3028   */\n      dup6\n        /* \"#utility.yul\":3015:3037   */\n      add\n        /* \"#utility.yul\":2984:3047   */\n      tag_58\n      jump\t// in\n    tag_122:\n        /* \"#utility.yul\":2974:3047   */\n      swap2\n      pop\n        /* \"#utility.yul\":2770:3057   */\n      pop\n        /* \"#utility.yul\":2555:3064   */\n      swap3\n      swap2\n      pop\n      pop\n      jump\t// out\n        /* \"#utility.yul\":3070:3147   */\n    tag_59:\n        /* \"#utility.yul\":3107:3114   */\n      0x00\n        /* \"#utility.yul\":3136:3141   */\n      dup2\n        /* \"#utility.yul\":3125:3141   */\n      swap1\n      pop\n        /* \"#utility.yul\":3070:3147   */\n      swap2\n      swap1\n      pop\n      jump\t// out\n        /* \"#utility.yul\":3153:3271   */\n    tag_60:\n        /* \"#utility.yul\":3240:3264   */\n      tag_125\n        /* \"#utility.yul\":3258:3263   */\n      dup2\n        /* \"#utility.yul\":3240:3264   */\n      tag_59\n      jump\t// in\n    tag_125:\n        /* \"#utility.yul\":3235:3238   */\n      dup3\n        /* \"#utility.yul\":3228:3265   */\n      mstore\n        /* \"#utility.yul\":3153:3271   */\n      pop\n      pop\n      jump\t// out\n        /* \"#utility.yul\":3277:3499   */\n    tag_11:\n        /* \"#utility.yul\":3370:3374   */\n      0x00\n        /* \"#utility.yul\":3408:3410   */\n      0x20\n        /* \"#utility.yul\":3397:3406   */\n      dup3\n        /* \"#utility.yul\":3393:3411   */\n      add\n        /* \"#utility.yul\":3385:3411   */\n      swap1\n      pop\n        /* \"#utility.yul\":3421:3492   */\n      tag_127\n        /* \"#utility.yul\":3489:3490   */\n      0x00\n        /* \"#utility.yul\":3478:3487   */\n      dup4\n        /* \"#utility.yul\":3474:3491   */\n      add\n        /* \"#utility.yul\":3465:3471   */\n      dup5\n        /* \"#utility.yul\":3421:3492   */\n      tag_60\n      jump\t// in\n    tag_127:\n        /* \"#utility.yul\":3277:3499   */\n      swap3\n      swap2\n      pop\n      pop\n      jump\t// out\n        /* \"#utility.yul\":3505:3674   */\n    tag_61:\n        /* \"#utility.yul\":3589:3600   */\n      0x00\n        /* \"#utility.yul\":3623:3629   */\n      dup3\n        /* \"#utility.yul\":3618:3621   */\n      dup3\n        /* \"#utility.yul\":3611:3630   */\n      mstore\n        /* \"#utility.yul\":3663:3667   */\n      0x20\n        /* \"#utility.yul\":3658:3661   */\n      dup3\n        /* \"#utility.yul\":3654:3668   */\n      add\n        /* \"#utility.yul\":3639:3668   */\n      swap1\n      pop\n        /* \"#utility.yul\":3505:3674   */\n      swap3\n      swap2\n      pop\n      pop\n      jump\t// out\n        /* \"#utility.yul\":3680:3860   */\n    tag_62:\n        /* \"#utility.yul\":3820:3852   */\n      0x43616e646964617465206e616d652063616e6e6f7420626520656d7074790000\n        /* \"#utility.yul\":3816:3817   */\n      0x00\n        /* \"#utility.yul\":3808:3814   */\n      dup3\n        /* \"#utility.yul\":3804:3818   */\n      add\n        /* \"#utility.yul\":3797:3853   */\n      mstore\n        /* \"#utility.yul\":3680:3860   */\n      pop\n      jump\t// out\n        /* \"#utility.yul\":3866:4232   */\n    tag_63:\n        /* \"#utility.yul\":4008:4011   */\n      0x00\n        /* \"#utility.yul\":4029:4096   */\n      tag_131\n        /* \"#utility.yul\":4093:4095   */\n      0x1e\n        /* \"#utility.yul\":4088:4091   */\n      dup4\n        /* \"#utility.yul\":4029:4096   */\n      tag_61\n      jump\t// in\n    tag_131:\n        /* \"#utility.yul\":4022:4096   */\n      swap2\n      pop\n        /* \"#utility.yul\":4105:4198   */\n      tag_132\n        /* \"#utility.yul\":4194:4197   */\n      dup3\n        /* \"#utility.yul\":4105:4198   */\n      tag_62\n      jump\t// in\n    tag_132:\n        /* \"#utility.yul\":4223:4225   */\n      0x20\n        /* \"#utility.yul\":4218:4221   */\n      dup3\n        /* \"#utility.yul\":4214:4226   */\n      add\n        /* \"#utility.yul\":4207:4226   */\n      swap1\n      pop\n        /* \"#utility.yul\":3866:4232   */\n      swap2\n      swap1\n      pop\n      jump\t// out\n        /* \"#utility.yul\":4238:4657   */\n    tag_20:\n        /* \"#utility.yul\":4404:4408   */\n      0x00\n        /* \"#utility.yul\":4442:4444   */\n      0x20\n        /* \"#utility.yul\":4431:4440   */\n      dup3\n        /* \"#utility.yul\":4427:4445   */\n      add\n        /* \"#utility.yul\":4419:4445   */\n      swap1\n      pop\n        /* \"#utility.yul\":4491:4500   */\n      dup2\n        /* \"#utility.yul\":4485:4489   */\n      dup2\n        /* \"#utility.yul\":4481:4501   */\n      sub\n        /* \"#utility.yul\":4477:4478   */\n      0x00\n        /* \"#utility.yul\":4466:4475   */\n      dup4\n        /* \"#utility.yul\":4462:4479   */\n      add\n        /* \"#utility.yul\":4455:4502   */\n      mstore\n        /* \"#utility.yul\":4519:4650   */\n      tag_134\n        /* \"#utility.yul\":4645:4649   */\n      dup2\n        /* \"#utility.yul\":4519:4650   */\n      tag_63\n      jump\t// in\n    tag_134:\n        /* \"#utility.yul\":4511:4650   */\n      swap1\n      pop\n        /* \"#utility.yul\":4238:4657   */\n      swap2\n      swap1\n      pop\n      jump\t// out\n        /* \"#utility.yul\":4663:4762   */\n    tag_64:\n        /* \"#utility.yul\":4715:4721   */\n      0x00\n        /* \"#utility.yul\":4749:4754   */\n      dup2\n        /* \"#utility.yul\":4743:4755   */\n      mload\n        /* \"#utility.yul\":4733:4755   */\n      swap1\n      pop\n        /* \"#utility.yul\":4663:4762   */\n      swap2\n      swap1\n      pop\n      jump\t// out\n        /* \"#utility.yul\":4768:4916   */\n    tag_65:\n        /* \"#utility.yul\":4870:4881   */\n      0x00\n        /* \"#utility.yul\":4907:4910   */\n      dup2\n        /* \"#utility.yul\":4892:4910   */\n      swap1\n      pop\n        /* \"#utility.yul\":4768:4916   */\n      swap3\n      swap2\n      pop\n      pop\n      jump\t// out\n        /* \"#utility.yul\":4922:5170   */\n    tag_66:\n        /* \"#utility.yul\":5004:5005   */\n      0x00\n        /* \"#utility.yul\":5014:5127   */\n    tag_138:\n        /* \"#utility.yul\":5028:5034   */\n      dup4\n        /* \"#utility.yul\":5025:5026   */\n      dup2\n        /* \"#utility.yul\":5022:5035   */\n      lt\n        /* \"#utility.yul\":5014:5127   */\n      iszero\n      tag_140\n      jumpi\n        /* \"#utility.yul\":5113:5114   */\n      dup1\n        /* \"#utility.yul\":5108:5111   */\n      dup3\n        /* \"#utility.yul\":5104:5115   */\n      add\n        /* \"#utility.yul\":5098:5116   */\n      mload\n        /* \"#utility.yul\":5094:5095   */\n      dup2\n        /* \"#utility.yul\":5089:5092   */\n      dup5\n        /* \"#utility.yul\":5085:5096   */\n      add\n        /* \"#utility.yul\":5078:5117   */\n      mstore\n        /* \"#utility.yul\":5050:5052   */\n      0x20\n        /* \"#utility.yul\":5047:5048   */\n      dup2\n        /* \"#utility.yul\":5043:5053   */\n      add\n        /* \"#utility.yul\":5038:5053   */\n      swap1\n      pop\n        /* \"#utility.yul\":5014:5127   */\n      jump(tag_138)\n    tag_140:\n        /* \"#utility.yul\":5161:5162   */\n      0x00\n        /* \"#utility.yul\":5152:5158   */\n      dup5\n        /* \"#utility.yul\":5147:5150   */\n      dup5\n        /* \"#utility.yul\":5143:5159   */\n      add\n        /* \"#utility.yul\":5136:5163   */\n      mstore\n        /* \"#utility.yul\":4984:5170   */\n      pop\n        /* \"#utility.yul\":4922:5170   */\n      pop\n      pop\n      pop\n      jump\t// out\n        /* \"#utility.yul\":5176:5566   */\n    tag_67:\n        /* \"#utility.yul\":5282:5285   */\n      0x00\n        /* \"#utility.yul\":5310:5349   */\n      tag_142\n        /* \"#utility.yul\":5343:5348   */\n      dup3\n        /* \"#utility.yul\":5310:5349   */\n      tag_64\n      jump\t// in\n    tag_142:\n        /* \"#utility.yul\":5365:5454   */\n      tag_143\n        /* \"#utility.yul\":5447:5453   */\n      dup2\n        /* \"#utility.yul\":5442:5445   */\n      dup6\n        /* \"#utility.yul\":5365:5454   */\n      tag_65\n      jump\t// in\n    tag_143:\n        /* \"#utility.yul\":5358:5454   */\n      swap4\n      pop\n        /* \"#utility.yul\":5463:5528   */\n      tag_144\n        /* \"#utility.yul\":5521:5527   */\n      dup2\n        /* \"#utility.yul\":5516:5519   */\n      dup6\n        /* \"#utility.yul\":5509:5513   */\n      0x20\n        /* \"#utility.yul\":5502:5507   */\n      dup7\n        /* \"#utility.yul\":5498:5514   */\n      add\n        /* \"#utility.yul\":5463:5528   */\n      tag_66\n      jump\t// in\n    tag_144:\n        /* \"#utility.yul\":5553:5559   */\n      dup1\n        /* \"#utility.yul\":5548:5551   */\n      dup5\n        /* \"#utility.yul\":5544:5560   */\n      add\n        /* \"#utility.yul\":5537:5560   */\n      swap2\n      pop\n        /* \"#utility.yul\":5286:5566   */\n      pop\n        /* \"#utility.yul\":5176:5566   */\n      swap3\n      swap2\n      pop\n      pop\n      jump\t// out\n        /* \"#utility.yul\":5572:5847   */\n    tag_22:\n        /* \"#utility.yul\":5704:5707   */\n      0x00\n        /* \"#utility.yul\":5726:5821   */\n      tag_146\n        /* \"#utility.yul\":5817:5820   */\n      dup3\n        /* \"#utility.yul\":5808:5814   */\n      dup5\n        /* \"#utility.yul\":5726:5821   */\n      tag_67\n      jump\t// in\n    tag_146:\n        /* \"#utility.yul\":5719:5821   */\n      swap2\n      pop\n        /* \"#utility.yul\":5838:5841   */\n      dup2\n        /* \"#utility.yul\":5831:5841   */\n      swap1\n      pop\n        /* \"#utility.yul\":5572:5847   */\n      swap3\n      swap2\n      pop\n      pop\n      jump\t// out\n        /* \"#utility.yul\":5853:6033   */\n    tag_29:\n        /* \"#utility.yul\":5901:5978   */\n      0x4e487b7100000000000000000000000000000000000000000000000000000000\n        /* \"#utility.yul\":5898:5899   */\n      0x00\n        /* \"#utility.yul\":5891:5979   */\n      mstore\n        /* \"#utility.yul\":5998:6002   */\n      0x32\n        /* \"#utility.yul\":5995:5996   */\n      0x04\n        /* \"#utility.yul\":5988:6003   */\n      mstore\n        /* \"#utility.yul\":6022:6026   */\n      0x24\n        /* \"#utility.yul\":6019:6020   */\n      0x00\n        /* \"#utility.yul\":6012:6027   */\n      revert\n        /* \"#utility.yul\":6039:6219   */\n    tag_68:\n        /* \"#utility.yul\":6087:6164   */\n      0x4e487b7100000000000000000000000000000000000000000000000000000000\n        /* \"#utility.yul\":6084:6085   */\n      0x00\n        /* \"#utility.yul\":6077:6165   */\n      mstore\n        /* \"#utility.yul\":6184:6188   */\n      0x22\n        /* \"#utility.yul\":6181:6182   */\n      0x04\n        /* \"#utility.yul\":6174:6189   */\n      mstore\n        /* \"#utility.yul\":6208:6212   */\n      0x24\n        /* \"#utility.yul\":6205:6206   */\n      0x00\n        /* \"#utility.yul\":6198:6213   */\n      revert\n        /* \"#utility.yul\":6225:6545   */\n    tag_69:\n        /* \"#utility.yul\":6269:6275   */\n      0x00\n        /* \"#utility.yul\":6306:6307   */\n      0x02\n        /* \"#utility.yul\":6300:6304   */\n      dup3\n        /* \"#utility.yul\":6296:6308   */\n      div\n        /* \"#utility.yul\":6286:6308   */\n      swap1\n      pop\n        /* \"#utility.yul\":6353:6354   */\n      0x01\n        /* \"#utility.yul\":6347:6351   */\n      dup3\n        /* \"#utility.yul\":6343:6355   */\n      and\n        /* \"#utility.yul\":6374:6392   */\n      dup1\n        /* \"#utility.yul\":6364:6445   */\n      tag_150\n      jumpi\n        /* \"#utility.yul\":6430:6434   */\n      0x7f\n        /* \"#utility.yul\":6422:6428   */\n      dup3\n        /* \"#utility.yul\":6418:6435   */\n      and\n        /* \"#utility.yul\":6408:6435   */\n      swap2\n      pop\n        /* \"#utility.yul\":6364:6445   */\n    tag_150:\n        /* \"#utility.yul\":6492:6494   */\n      0x20\n        /* \"#utility.yul\":6484:6490   */\n      dup3\n        /* \"#utility.yul\":6481:6495   */\n      lt\n        /* \"#utility.yul\":6461:6479   */\n      dup2\n        /* \"#utility.yul\":6458:6496   */\n      sub\n        /* \"#utility.yul\":6455:6539   */\n      tag_151\n      jumpi\n        /* \"#utility.yul\":6511:6529   */\n      tag_152\n      tag_68\n      jump\t// in\n    tag_152:\n        /* \"#utility.yul\":6455:6539   */\n    tag_151:\n        /* \"#utility.yul\":6276:6545   */\n      pop\n        /* \"#utility.yul\":6225:6545   */\n      swap2\n      swap1\n      pop\n      jump\t// out\n        /* \"#utility.yul\":6551:6692   */\n    tag_70:\n        /* \"#utility.yul\":6600:6604   */\n      0x00\n        /* \"#utility.yul\":6623:6626   */\n      dup2\n        /* \"#utility.yul\":6615:6626   */\n      swap1\n      pop\n        /* \"#utility.yul\":6646:6649   */\n      dup2\n        /* \"#utility.yul\":6643:6644   */\n      0x00\n        /* \"#utility.yul\":6636:6650   */\n      mstore\n        /* \"#utility.yul\":6680:6684   */\n      0x20\n        /* \"#utility.yul\":6677:6678   */\n      0x00\n        /* \"#utility.yul\":6667:6685   */\n      keccak256\n        /* \"#utility.yul\":6659:6685   */\n      swap1\n      pop\n        /* \"#utility.yul\":6551:6692   */\n      swap2\n      swap1\n      pop\n      jump\t// out\n        /* \"#utility.yul\":6722:7596   */\n    tag_71:\n        /* \"#utility.yul\":6825:6828   */\n      0x00\n        /* \"#utility.yul\":6862:6867   */\n      dup2\n        /* \"#utility.yul\":6856:6868   */\n      sload\n        /* \"#utility.yul\":6891:6927   */\n      tag_155\n        /* \"#utility.yul\":6917:6926   */\n      dup2\n        /* \"#utility.yul\":6891:6927   */\n      tag_69\n      jump\t// in\n    tag_155:\n        /* \"#utility.yul\":6943:7032   */\n      tag_156\n        /* \"#utility.yul\":7025:7031   */\n      dup2\n        /* \"#utility.yul\":7020:7023   */\n      dup7\n        /* \"#utility.yul\":6943:7032   */\n      tag_65\n      jump\t// in\n    tag_156:\n        /* \"#utility.yul\":6936:7032   */\n      swap5\n      pop\n        /* \"#utility.yul\":7063:7064   */\n      0x01\n        /* \"#utility.yul\":7052:7061   */\n      dup3\n        /* \"#utility.yul\":7048:7065   */\n      and\n        /* \"#utility.yul\":7079:7080   */\n      0x00\n        /* \"#utility.yul\":7074:7240   */\n      dup2\n      eq\n      tag_158\n      jumpi\n        /* \"#utility.yul\":7254:7255   */\n      0x01\n        /* \"#utility.yul\":7249:7590   */\n      dup2\n      eq\n      tag_159\n      jumpi\n        /* \"#utility.yul\":7041:7590   */\n      jump(tag_157)\n        /* \"#utility.yul\":7074:7240   */\n    tag_158:\n        /* \"#utility.yul\":7158:7162   */\n      0xff\n        /* \"#utility.yul\":7154:7163   */\n      not\n        /* \"#utility.yul\":7143:7152   */\n      dup4\n        /* \"#utility.yul\":7139:7164   */\n      and\n        /* \"#utility.yul\":7134:7137   */\n      dup7\n        /* \"#utility.yul\":7127:7165   */\n      mstore\n        /* \"#utility.yul\":7220:7226   */\n      dup2\n        /* \"#utility.yul\":7213:7227   */\n      iszero\n        /* \"#utility.yul\":7206:7228   */\n      iszero\n        /* \"#utility.yul\":7198:7204   */\n      dup3\n        /* \"#utility.yul\":7194:7229   */\n      mul\n        /* \"#utility.yul\":7189:7192   */\n      dup7\n        /* \"#utility.yul\":7185:7230   */\n      add\n        /* \"#utility.yul\":7178:7230   */\n      swap4\n      pop\n        /* \"#utility.yul\":7074:7240   */\n      jump(tag_157)\n        /* \"#utility.yul\":7249:7590   */\n    tag_159:\n        /* \"#utility.yul\":7316:7354   */\n      tag_160\n        /* \"#utility.yul\":7348:7353   */\n      dup6\n        /* \"#utility.yul\":7316:7354   */\n      tag_70\n      jump\t// in\n    tag_160:\n        /* \"#utility.yul\":7376:7377   */\n      0x00\n        /* \"#utility.yul\":7390:7544   */\n    tag_161:\n        /* \"#utility.yul\":7404:7410   */\n      dup4\n        /* \"#utility.yul\":7401:7402   */\n      dup2\n        /* \"#utility.yul\":7398:7411   */\n      lt\n        /* \"#utility.yul\":7390:7544   */\n      iszero\n      tag_163\n      jumpi\n        /* \"#utility.yul\":7478:7485   */\n      dup2\n        /* \"#utility.yul\":7472:7486   */\n      sload\n        /* \"#utility.yul\":7468:7469   */\n      dup2\n        /* \"#utility.yul\":7463:7466   */\n      dup10\n        /* \"#utility.yul\":7459:7470   */\n      add\n        /* \"#utility.yul\":7452:7487   */\n      mstore\n        /* \"#utility.yul\":7528:7529   */\n      0x01\n        /* \"#utility.yul\":7519:7526   */\n      dup3\n        /* \"#utility.yul\":7515:7530   */\n      add\n        /* \"#utility.yul\":7504:7530   */\n      swap2\n      pop\n        /* \"#utility.yul\":7426:7430   */\n      0x20\n        /* \"#utility.yul\":7423:7424   */\n      dup2\n        /* \"#utility.yul\":7419:7431   */\n      add\n        /* \"#utility.yul\":7414:7431   */\n      swap1\n      pop\n        /* \"#utility.yul\":7390:7544   */\n      jump(tag_161)\n    tag_163:\n        /* \"#utility.yul\":7573:7579   */\n      dup4\n        /* \"#utility.yul\":7568:7571   */\n      dup9\n        /* \"#utility.yul\":7564:7580   */\n      add\n        /* \"#utility.yul\":7557:7580   */\n      swap6\n      pop\n        /* \"#utility.yul\":7256:7590   */\n      pop\n      pop\n        /* \"#utility.yul\":7041:7590   */\n    tag_157:\n      pop\n        /* \"#utility.yul\":6829:7596   */\n      pop\n      pop\n        /* \"#utility.yul\":6722:7596   */\n      swap3\n      swap2\n      pop\n      pop\n      jump\t// out\n        /* \"#utility.yul\":7602:7871   */\n    tag_32:\n        /* \"#utility.yul\":7731:7734   */\n      0x00\n        /* \"#utility.yul\":7753:7845   */\n      tag_165\n        /* \"#utility.yul\":7841:7844   */\n      dup3\n        /* \"#utility.yul\":7832:7838   */\n      dup5\n        /* \"#utility.yul\":7753:7845   */\n      tag_71\n      jump\t// in\n    tag_165:\n        /* \"#utility.yul\":7746:7845   */\n      swap2\n      pop\n        /* \"#utility.yul\":7862:7865   */\n      dup2\n        /* \"#utility.yul\":7855:7865   */\n      swap1\n      pop\n        /* \"#utility.yul\":7602:7871   */\n      swap3\n      swap2\n      pop\n      pop\n      jump\t// out\n        /* \"#utility.yul\":7877:7970   */\n    tag_72:\n        /* \"#utility.yul\":7914:7920   */\n      0x00\n        /* \"#utility.yul\":7961:7963   */\n      0x20\n        /* \"#utility.yul\":7956:7958   */\n      0x1f\n        /* \"#utility.yul\":7949:7954   */\n      dup4\n        /* \"#utility.yul\":7945:7959   */\n      add\n        /* \"#utility.yul\":7941:7964   */\n      div\n        /* \"#utility.yul\":7931:7964   */\n      swap1\n      pop\n        /* \"#utility.yul\":7877:7970   */\n      swap2\n      swap1\n      pop\n      jump\t// out\n        /* \"#utility.yul\":7976:8083   */\n    tag_73:\n        /* \"#utility.yul\":8020:8028   */\n      0x00\n        /* \"#utility.yul\":8070:8075   */\n      dup3\n        /* \"#utility.yul\":8064:8068   */\n      dup3\n        /* \"#utility.yul\":8060:8076   */\n      shl\n        /* \"#utility.yul\":8039:8076   */\n      swap1\n      pop\n        /* \"#utility.yul\":7976:8083   */\n      swap3\n      swap2\n      pop\n      pop\n      jump\t// out\n        /* \"#utility.yul\":8089:8482   */\n    tag_74:\n        /* \"#utility.yul\":8158:8164   */\n      0x00\n        /* \"#utility.yul\":8208:8209   */\n      0x08\n        /* \"#utility.yul\":8196:8206   */\n      dup4\n        /* \"#utility.yul\":8192:8210   */\n      mul\n        /* \"#utility.yul\":8231:8328   */\n      tag_169\n        /* \"#utility.yul\":8261:8327   */\n      0xffffffffffffffffffffffffffffffffffffffffffffffffffffffffffffffff\n        /* \"#utility.yul\":8250:8259   */\n      dup3\n        /* \"#utility.yul\":8231:8328   */\n      tag_73\n      jump\t// in\n    tag_169:\n        /* \"#utility.yul\":8349:8388   */\n      tag_170\n        /* \"#utility.yul\":8379:8387   */\n      dup7\n        /* \"#utility.yul\":8368:8377   */\n      dup4\n        /* \"#utility.yul\":8349:8388   */\n      tag_73\n      jump\t// in\n    tag_170:\n        /* \"#utility.yul\":8337:8388   */\n      swap6\n      pop\n        /* \"#utility.yul\":8421:8425   */\n      dup1\n        /* \"#utility.yul\":8417:8426   */\n      not\n        /* \"#utility.yul\":8410:8415   */\n      dup5\n        /* \"#utility.yul\":8406:8427   */\n      and\n        /* \"#utility.yul\":8397:8427   */\n      swap4\n      pop\n        /* \"#utility.yul\":8470:8474   */\n      dup1\n        /* \"#utility.yul\":8460:8468   */\n      dup7\n        /* \"#utility.yul\":8456:8475   */\n      and\n        /* \"#utility.yul\":8449:8454   */\n      dup5\n        /* \"#utility.yul\":8446:8476   */\n      or\n        /* \"#utility.yul\":8436:8476   */\n      swap3\n      pop\n        /* \"#utility.yul\":8165:8482   */\n      pop\n      pop\n        /* \"#utility.yul\":8089:8482   */\n      swap4\n      swap3\n      pop\n      pop\n      pop\n      jump\t// out\n        /* \"#utility.yul\":8488:8548   */\n    tag_75:\n        /* \"#utility.yul\":8516:8519   */\n      0x00\n        /* \"#utility.yul\":8537:8542   */\n      dup2\n        /* \"#utility.yul\":8530:8542   */\n      swap1\n      pop\n        /* \"#utility.yul\":8488:8548   */\n      swap2\n      swap1\n      pop\n      jump\t// out\n        /* \"#utility.yul\":8554:8696   */\n    tag_76:\n        /* \"#utility.yul\":8604:8613   */\n      0x00\n        /* \"#utility.yul\":8637:8690   */\n      tag_173\n        /* \"#utility.yul\":8655:8689   */\n      tag_174\n        /* \"#utility.yul\":8664:8688   */\n      tag_175\n        /* \"#utility.yul\":8682:8687   */\n      dup5\n        /* \"#utility.yul\":8664:8688   */\n      tag_59\n      jump\t// in\n    tag_175:\n        /* \"#utility.yul\":8655:8689   */\n      tag_75\n      jump\t// in\n    tag_174:\n        /* \"#utility.yul\":8637:8690   */\n      tag_59\n      jump\t// in\n    tag_173:\n        /* \"#utility.yul\":8624:8690   */\n      swap1\n      pop\n        /* \"#utility.yul\":8554:8696   */\n      swap2\n      swap1\n      pop\n      jump\t// out\n        /* \"#utility.yul\":8702:8777   */\n    tag_77:\n        /* \"#utility.yul\":8745:8748   */\n      0x00\n        /* \"#utility.yul\":8766:8771   */\n      dup2\n        /* \"#utility.yul\":8759:8771   */\n      swap1\n      pop\n        /* \"#utility.yul\":8702:8777   */\n      swap2\n      swap1\n      pop\n      jump\t// out\n        /* \"#utility.yul\":8783:9052   */\n    tag_78:\n        /* \"#utility.yul\":8893:8932   */\n      tag_178\n        /* \"#utility.yul\":8924:8931   */\n      dup4\n        /* \"#utility.yul\":8893:8932   */\n      tag_76\n      jump\t// in\n    tag_178:\n        /* \"#utility.yul\":8954:9045   */\n      tag_179\n        /* \"#utility.yul\":9003:9044   */\n      tag_180\n        /* \"#utility.yul\":9027:9043   */\n      dup3\n        /* \"#utility.yul\":9003:9044   */\n      tag_77\n      jump\t// in\n    tag_180:\n        /* \"#utility.yul\":8995:9001   */\n      dup5\n        /* \"#utility.yul\":8988:8992   */\n      dup5\n        /* \"#utility.yul\":8982:8993   */\n      sload\n        /* \"#utility.yul\":8954:9045   */\n      tag_74\n      jump\t// in\n    tag_179:\n        /* \"#utility.yul\":8948:8952   */\n      dup3\n        /* \"#utility.yul\":8941:9046   */\n      sstore\n        /* \"#utility.yul\":8859:9052   */\n      pop\n        /* \"#utility.yul\":8783:9052   */\n      pop\n      pop\n      pop\n      jump\t// out\n        /* \"#utility.yul\":9058:9131   */\n    tag_79:\n        /* \"#utility.yul\":9103:9106   */\n      0x00\n        /* \"#utility.yul\":9058:9131   */\n      swap1\n      jump\t// out\n        /* \"#utility.yul\":9137:9326   */\n    tag_80:\n        /* \"#utility.yul\":9214:9246   */\n      tag_183\n      tag_79\n      jump\t// in\n    tag_183:\n        /* \"#utility.yul\":9255:9320   */\n      tag_184\n        /* \"#utility.yul\":9313:9319   */\n      dup2\n        /* \"#utility.yul\":9305:9311   */\n      dup5\n        /* \"#utility.yul\":9299:9303   */\n      dup5\n        /* \"#utility.yul\":9255:9320   */\n      tag_78\n      jump\t// in\n    tag_184:\n        /* \"#utility.yul\":9190:9326   */\n      pop\n        /* \"#utility.yul\":9137:9326   */\n      pop\n      pop\n      jump\t// out\n        /* \"#utility.yul\":9332:9518   */\n    tag_81:\n        /* \"#utility.yul\":9392:9512   */\n    tag_186:\n        /* \"#utility.yul\":9409:9412   */\n      dup2\n        /* \"#utility.yul\":9402:9407   */\n      dup2\n        /* \"#utility.yul\":9399:9413   */\n      lt\n        /* \"#utility.yul\":9392:9512   */\n      iszero\n      tag_188\n      jumpi\n        /* \"#utility.yul\":9463:9502   */\n      tag_189\n        /* \"#utility.yul\":9500:9501   */\n      0x00\n        /* \"#utility.yul\":9493:9498   */\n      dup3\n        /* \"#utility.yul\":9463:9502   */\n      tag_80\n      jump\t// in\n    tag_189:\n        /* \"#utility.yul\":9436:9437   */\n      0x01\n        /* \"#utility.yul\":9429:9434   */\n      dup2\n        /* \"#utility.yul\":9425:9438   */\n      add\n        /* \"#utility.yul\":9416:9438   */\n      swap1\n      pop\n        /* \"#utility.yul\":9392:9512   */\n      jump(tag_186)\n    tag_188:\n        /* \"#utility.yul\":9332:9518   */\n      pop\n      pop\n      jump\t// out\n        /* \"#utility.yul\":9524:10067   */\n    tag_82:\n        /* \"#utility.yul\":9625:9627   */\n      0x1f\n        /* \"#utility.yul\":9620:9623   */\n      dup3\n        /* \"#utility.yul\":9617:9628   */\n      gt\n        /* \"#utility.yul\":9614:10060   */\n      iszero\n      tag_191\n      jumpi\n        /* \"#utility.yul\":9659:9697   */\n      tag_192\n        /* \"#utility.yul\":9691:9696   */\n      dup2\n        /* \"#utility.yul\":9659:9697   */\n      tag_70\n      jump\t// in\n    tag_192:\n        /* \"#utility.yul\":9743:9772   */\n      tag_193\n        /* \"#utility.yul\":9761:9771   */\n      dup5\n        /* \"#utility.yul\":9743:9772   */\n      tag_72\n      jump\t// in\n    tag_193:\n        /* \"#utility.yul\":9733:9741   */\n      dup2\n        /* \"#utility.yul\":9729:9773   */\n      add\n        /* \"#utility.yul\":9926:9928   */\n      0x20\n        /* \"#utility.yul\":9914:9924   */\n      dup6\n        /* \"#utility.yul\":9911:9929   */\n      lt\n        /* \"#utility.yul\":9908:9957   */\n      iszero\n      tag_194\n      jumpi\n        /* \"#utility.yul\":9947:9955   */\n      dup2\n        /* \"#utility.yul\":9932:9955   */\n      swap1\n      pop\n        /* \"#utility.yul\":9908:9957   */\n    tag_194:\n        /* \"#utility.yul\":9970:10050   */\n      tag_195\n        /* \"#utility.yul\":10026:10048   */\n      tag_196\n        /* \"#utility.yul\":10044:10047   */\n      dup6\n        /* \"#utility.yul\":10026:10048   */\n      tag_72\n      jump\t// in\n    tag_196:\n        /* \"#utility.yul\":10016:10024   */\n      dup4\n        /* \"#utility.yul\":10012:10049   */\n      add\n        /* \"#utility.yul\":9999:10010   */\n      dup3\n        /* \"#utility.yul\":9970:10050   */\n      tag_81\n      jump\t// in\n    tag_195:\n        /* \"#utility.yul\":9629:10060   */\n      pop\n      pop\n        /* \"#utility.yul\":9614:10060   */\n    tag_191:\n        /* \"#utility.yul\":9524:10067   */\n      pop\n      pop\n      pop\n      jump\t// out\n        /* \"#utility.yul\":10073:10190   */\n    tag_83:\n        /* \"#utility.yul\":10127:10135   */\n      0x00\n        /* \"#utility.yul\":10177:10182   */\n      dup3\n        /* \"#utility.yul\":10171:10175   */\n      dup3\n        /* \"#utility.yul\":10167:10183   */\n      shr\n        /* \"#utility.yul\":10146:10183   */\n      swap1\n      pop\n        /* \"#utility.yul\":10073:10190   */\n      swap3\n      swap2\n      pop\n      pop\n      jump\t// out\n        /* \"#utility.yul\":10196:10365   */\n    tag_84:\n        /* \"#utility.yul\":10240:10246   */\n      0x00\n        /* \"#utility.yul\":10273:10324   */\n      tag_199\n        /* \"#utility.yul\":10321:10322   */\n      0x00\n        /* \"#utility.yul\":10317:10323   */\n      not\n        /* \"#utility.yul\":10309:10314   */\n      dup5\n        /* \"#utility.yul\":10306:10307   */\n      0x08\n        /* \"#utility.yul\":10302:10315   */\n      mul\n        /* \"#utility.yul\":10273:10324   */\n      tag_83\n      jump\t// in\n    tag_199:\n        /* \"#utility.yul\":10269:10325   */\n      not\n        /* \"#utility.yul\":10354:10358   */\n      dup1\n        /* \"#utility.yul\":10348:10352   */\n      dup4\n        /* \"#utility.yul\":10344:10359   */\n      and\n        /* \"#utility.yul\":10334:10359   */\n      swap2\n      pop\n        /* \"#utility.yul\":10247:10365   */\n      pop\n        /* \"#utility.yul\":10196:10365   */\n      swap3\n      swap2\n      pop\n      pop\n      jump\t// out\n        /* \"#utility.yul\":10370:10665   */\n    tag_85:\n        /* \"#utility.yul\":10446:10450   */\n      0x00\n        /* \"#utility.yul\":10592:10621   */\n      tag_201\n        /* \"#utility.yul\":10617:10620   */\n      dup4\n        /* \"#utility.yul\":10611:10615   */\n      dup4\n        /* \"#utility.yul\":10592:10621   */\n      tag_84\n      jump\t// in\n    tag_201:\n        /* \"#utility.yul\":10584:10621   */\n      swap2\n      pop\n        /* \"#utility.yul\":10654:10657   */\n      dup3\n        /* \"#utility.yul\":10651:10652   */\n      0x02\n        /* \"#utility.yul\":10647:10658   */\n      mul\n        /* \"#utility.yul\":10641:10645   */\n      dup3\n        /* \"#utility.yul\":10638:10659   */\n      or\n        /* \"#utility.yul\":10630:10659   */\n      swap1\n      pop\n        /* \"#utility.yul\":10370:10665   */\n      swap3\n      swap2\n      pop\n      pop\n      jump\t// out\n        /* \"#utility.yul\":10670:12065   */\n    tag_40:\n        /* \"#utility.yul\":10787:10824   */\n      tag_203\n        /* \"#utility.yul\":10820:10823   */\n      dup3\n        /* \"#utility.yul\":10787:10824   */\n      tag_64\n      jump\t// in\n    tag_203:\n        /* \"#utility.yul\":10889:10907   */\n      0xffffffffffffffff\n        /* \"#utility.yul\":10881:10887   */\n      dup2\n        /* \"#utility.yul\":10878:10908   */\n      gt\n        /* \"#utility.yul\":10875:10931   */\n      iszero\n      tag_204\n      jumpi\n        /* \"#utility.yul\":10911:10929   */\n      tag_205\n      tag_52\n      jump\t// in\n    tag_205:\n        /* \"#utility.yul\":10875:10931   */\n    tag_204:\n        /* \"#utility.yul\":10955:10993   */\n      tag_206\n        /* \"#utility.yul\":10987:10991   */\n      dup3\n        /* \"#utility.yul\":10981:10992   */\n      sload\n        /* \"#utility.yul\":10955:10993   */\n      tag_69\n      jump\t// in\n    tag_206:\n        /* \"#utility.yul\":11040:11107   */\n      tag_207\n        /* \"#utility.yul\":11100:11106   */\n      dup3\n        /* \"#utility.yul\":11092:11098   */\n      dup3\n        /* \"#utility.yul\":11086:11090   */\n      dup6\n        /* \"#utility.yul\":11040:11107   */\n      tag_82\n      jump\t// in\n    tag_207:\n        /* \"#utility.yul\":11134:11135   */\n      0x00\n        /* \"#utility.yul\":11158:11162   */\n      0x20\n        /* \"#utility.yul\":11145:11162   */\n      swap1\n      pop\n        /* \"#utility.yul\":11190:11192   */\n      0x1f\n        /* \"#utility.yul\":11182:11188   */\n      dup4\n        /* \"#utility.yul\":11179:11193   */\n      gt\n        /* \"#utility.yul\":11207:11208   */\n      0x01\n        /* \"#utility.yul\":11202:11820   */\n      dup2\n      eq\n      tag_209\n      jumpi\n        /* \"#utility.yul\":11864:11865   */\n      0x00\n        /* \"#utility.yul\":11881:11887   */\n      dup5\n        /* \"#utility.yul\":11878:11955   */\n      iszero\n      tag_210\n      jumpi\n        /* \"#utility.yul\":11930:11939   */\n      dup3\n        /* \"#utility.yul\":11925:11928   */\n      dup8\n        /* \"#utility.yul\":11921:11940   */\n      add\n        /* \"#utility.yul\":11915:11941   */\n      mload\n        /* \"#utility.yul\":11906:11941   */\n      swap1\n      pop\n        /* \"#utility.yul\":11878:11955   */\n    tag_210:\n        /* \"#utility.yul\":11981:12048   */\n      tag_211\n        /* \"#utility.yul\":12041:12047   */\n      dup6\n        /* \"#utility.yul\":12034:12039   */\n      dup3\n        /* \"#utility.yul\":11981:12048   */\n      tag_85\n      jump\t// in\n    tag_211:\n        /* \"#utility.yul\":11975:11979   */\n      dup7\n        /* \"#utility.yul\":11968:12049   */\n      sstore\n        /* \"#utility.yul\":11837:12059   */\n      pop\n        /* \"#utility.yul\":11172:12059   */\n      jump(tag_208)\n        /* \"#utility.yul\":11202:11820   */\n    tag_209:\n        /* \"#utility.yul\":11254:11258   */\n      0x1f\n        /* \"#utility.yul\":11250:11259   */\n      not\n        /* \"#utility.yul\":11242:11248   */\n      dup5\n        /* \"#utility.yul\":11238:11260   */\n      and\n        /* \"#utility.yul\":11288:11325   */\n      tag_212\n        /* \"#utility.yul\":11320:11324   */\n      dup7\n        /* \"#utility.yul\":11288:11325   */\n      tag_70\n      jump\t// in\n    tag_212:\n        /* \"#utility.yul\":11347:11348   */\n      0x00\n        /* \"#utility.yul\":11361:11569   */\n    tag_213:\n        /* \"#utility.yul\":11375:11382   */\n      dup3\n        /* \"#utility.yul\":11372:11373   */\n      dup2\n        /* \"#utility.yul\":11369:11383   */\n      lt\n        /* \"#utility.yul\":11361:11569   */\n      iszero\n      tag_215\n      jumpi\n        /* \"#utility.yul\":11454:11463   */\n      dup5\n        /* \"#utility.yul\":11449:11452   */\n      dup10\n        /* \"#utility.yul\":11445:11464   */\n      add\n        /* \"#utility.yul\":11439:11465   */\n      mload\n        /* \"#utility.yul\":11431:11437   */\n      dup3\n        /* \"#utility.yul\":11424:11466   */\n      sstore\n        /* \"#utility.yul\":11505:11506   */\n      0x01\n        /* \"#utility.yul\":11497:11503   */\n      dup3\n        /* \"#utility.yul\":11493:11507   */\n      add\n        /* \"#utility.yul\":11483:11507   */\n      swap2\n      pop\n        /* \"#utility.yul\":11552:11554   */\n      0x20\n        /* \"#utility.yul\":11541:11550   */\n      dup6\n        /* \"#utility.yul\":11537:11555   */\n      add\n        /* \"#utility.yul\":11524:11555   */\n      swap5\n      pop\n        /* \"#utility.yul\":11398:11402   */\n      0x20\n        /* \"#utility.yul\":11395:11396   */\n      dup2\n        /* \"#utility.yul\":11391:11403   */\n      add\n        /* \"#utility.yul\":11386:11403   */\n      swap1\n      pop\n        /* \"#utility.yul\":11361:11569   */\n      jump(tag_213)\n    tag_215:\n        /* \"#utility.yul\":11597:11603   */\n      dup7\n        /* \"#utility.yul\":11588:11595   */\n      dup4\n        /* \"#utility.yul\":11585:11604   */\n      lt\n        /* \"#utility.yul\":11582:11761   */\n      iszero\n      tag_216\n      jumpi\n        /* \"#utility.yul\":11655:11664   */\n      dup5\n        /* \"#utility.yul\":11650:11653   */\n      dup10\n        /* \"#utility.yul\":11646:11665   */\n      add\n        /* \"#utility.yul\":11640:11666   */\n      mload\n        /* \"#utility.yul\":11698:11746   */\n      tag_217\n        /* \"#utility.yul\":11740:11744   */\n      0x1f\n        /* \"#utility.yul\":11732:11738   */\n      dup10\n        /* \"#utility.yul\":11728:11745   */\n      and\n        /* \"#utility.yul\":11717:11726   */\n      dup3\n        /* \"#utility.yul\":11698:11746   */\n      tag_84\n      jump\t// in\n    tag_217:\n        /* \"#utility.yul\":11690:11696   */\n      dup4\n        /* \"#utility.yul\":11683:11747   */\n      sstore\n        /* \"#utility.yul\":11605:11761   */\n      pop\n        /* \"#utility.yul\":11582:11761   */\n    tag_216:\n        /* \"#utility.yul\":11807:11808   */\n      0x01\n        /* \"#utility.yul\":11803:11804   */\n      0x02\n        /* \"#utility.yul\":11795:11801   */\n      dup9\n        /* \"#utility.yul\":11791:11805   */\n      mul\n        /* \"#utility.yul\":11787:11809   */\n      add\n        /* \"#utility.yul\":11781:11785   */\n      dup9\n        /* \"#utility.yul\":11774:11810   */\n      sstore\n        /* \"#utility.yul\":11209:11820   */\n      pop\n      pop\n      pop\n        /* \"#utility.yul\":11172:12059   */\n    tag_208:\n      pop\n        /* \"#utility.yul\":10762:12065   */\n      pop\n      pop\n      pop\n        /* \"#utility.yul\":10670:12065   */\n      pop\n      pop\n      jump\t// out\n        /* \"#utility.yul\":12071:12251   */\n    tag_86:\n        /* \"#utility.yul\":12119:12196   */\n      0x4e487b7100000000000000000000000000000000000000000000000000000000\n        /* \"#utility.yul\":12116:12117   */\n      0x00\n        /* \"#utility.yul\":12109:12197   */\n      mstore\n        /* \"#utility.yul\":12216:12220   */\n      0x11\n        /* \"#utility.yul\":12213:12214   */\n      0x04\n        /* \"#utility.yul\":12206:12221   */\n      mstore\n        /* \"#utility.yul\":12240:12244   */\n      0x24\n        /* \"#utility.yul\":12237:12238   */\n      0x00\n        /* \"#utility.yul\":12230:12245   */\n      revert\n        /* \"#utility.yul\":12257:12448   */\n    tag_44:\n        /* \"#utility.yul\":12297:12300   */\n      0x00\n        /* \"#utility.yul\":12316:12336   */\n      tag_220\n        /* \"#utility.yul\":12334:12335   */\n      dup3\n        /* \"#utility.yul\":12316:12336   */\n      tag_59\n      jump\t// in\n    tag_220:\n        /* \"#utility.yul\":12311:12336   */\n      swap2\n      pop\n        /* \"#utility.yul\":12350:12370   */\n      tag_221\n        /* \"#utility.yul\":12368:12369   */\n      dup4\n        /* \"#utility.yul\":12350:12370   */\n      tag_59\n      jump\t// in\n    tag_221:\n        /* \"#utility.yul\":12345:12370   */\n      swap3\n      pop\n        /* \"#utility.yul\":12393:12394   */\n      dup3\n        /* \"#utility.yul\":12390:12391   */\n      dup3\n        /* \"#utility.yul\":12386:12395   */\n      add\n        /* \"#utility.yul\":12379:12395   */\n      swap1\n      pop\n        /* \"#utility.yul\":12414:12417   */\n      dup1\n        /* \"#utility.yul\":12411:12412   */\n      dup3\n        /* \"#utility.yul\":12408:12418   */\n      gt\n        /* \"#utility.yul\":12405:12441   */\n      iszero\n      tag_222\n      jumpi\n        /* \"#utility.yul\":12421:12439   */\n      tag_223\n      tag_86\n      jump\t// in\n    tag_223:\n        /* \"#utility.yul\":12405:12441   */\n    tag_222:\n        /* \"#utility.yul\":12257:12448   */\n      swap3\n      swap2\n      pop\n      pop\n      jump\t// out\n\n    auxdata: 0xa26469706673582212204942daa1edd24f26cde30e7d33cac9187bdea76f31ab92d96d9560c7e90066d864736f6c634300081a0033\n}\n",
				"bytecode": {
					"linkReferences": {},
					"object": "6080604052348015600e575f80fd5b506109688061001c5f395ff3fe608060405234801561000f575f80fd5b506004361061003f575f3560e01c8063805265e514610043578063b9830ff114610073578063fc36e15b1461007d575b5f80fd5b61005d600480360381019061005891906103d4565b610099565b60405161006a9190610433565b60405180910390f35b61007b610102565b005b610097600480360381019061009291906103d4565b61015e565b005b5f808251116100dd576040517f08c379a00000000000000000000000000000000000000000000000000000000081526004016100d4906104a6565b60405180910390fd5b5f826040516100ec9190610530565b9081526020016040518091039020549050919050565b5f5b60018054905081101561015b575f806001838154811061012757610126610546565b5b905f5260205f200160405161013c9190610662565b9081526020016040518091039020819055508080600101915050610104565b50565b5f8151116101a1576040517f08c379a0000000000000000000000000000000000000000000000000000000008152600401610198906104a6565b60405180910390fd5b6002816040516101b19190610530565b90815260200160405180910390205f9054906101000a900460ff1661023957600181908060018154018082558091505060019003905f5260205f20015f9091909190915090816102019190610803565b5060016002826040516102149190610530565b90815260200160405180910390205f6101000a81548160ff0219169083151502179055505b60015f8260405161024a9190610530565b90815260200160405180910390205461026391906108ff565b5f826040516102729190610530565b90815260200160405180910390208190555050565b5f604051905090565b5f80fd5b5f80fd5b5f80fd5b5f80fd5b5f601f19601f8301169050919050565b7f4e487b71000000000000000000000000000000000000000000000000000000005f52604160045260245ffd5b6102e6826102a0565b810181811067ffffffffffffffff82111715610305576103046102b0565b5b80604052505050565b5f610317610287565b905061032382826102dd565b919050565b5f67ffffffffffffffff821115610342576103416102b0565b5b61034b826102a0565b9050602081019050919050565b828183375f83830152505050565b5f61037861037384610328565b61030e565b9050828152602081018484840111156103945761039361029c565b5b61039f848285610358565b509392505050565b5f82601f8301126103bb576103ba610298565b5b81356103cb848260208601610366565b91505092915050565b5f602082840312156103e9576103e8610290565b5b5f82013567ffffffffffffffff81111561040657610405610294565b5b610412848285016103a7565b91505092915050565b5f819050919050565b61042d8161041b565b82525050565b5f6020820190506104465f830184610424565b92915050565b5f82825260208201905092915050565b7f43616e646964617465206e616d652063616e6e6f7420626520656d70747900005f82015250565b5f610490601e8361044c565b915061049b8261045c565b602082019050919050565b5f6020820190508181035f8301526104bd81610484565b9050919050565b5f81519050919050565b5f81905092915050565b5f5b838110156104f55780820151818401526020810190506104da565b5f8484015250505050565b5f61050a826104c4565b61051481856104ce565b93506105248185602086016104d8565b80840191505092915050565b5f61053b8284610500565b915081905092915050565b7f4e487b71000000000000000000000000000000000000000000000000000000005f52603260045260245ffd5b7f4e487b71000000000000000000000000000000000000000000000000000000005f52602260045260245ffd5b5f60028204905060018216806105b757607f821691505b6020821081036105ca576105c9610573565b5b50919050565b5f819050815f5260205f209050919050565b5f81546105ee816105a0565b6105f881866104ce565b9450600182165f8114610612576001811461062757610659565b60ff1983168652811515820286019350610659565b610630856105d0565b5f5b8381101561065157815481890152600182019150602081019050610632565b838801955050505b50505092915050565b5f61066d82846105e2565b915081905092915050565b5f6020601f8301049050919050565b5f82821b905092915050565b5f600883026106c27fffffffffffffffffffffffffffffffffffffffffffffffffffffffffffffffff82610687565b6106cc8683610687565b95508019841693508086168417925050509392505050565b5f819050919050565b5f6107076107026106fd8461041b565b6106e4565b61041b565b9050919050565b5f819050919050565b610720836106ed565b61073461072c8261070e565b848454610693565b825550505050565b5f90565b61074861073c565b610753818484610717565b505050565b5b818110156107765761076b5f82610740565b600181019050610759565b5050565b601f8211156107bb5761078c816105d0565b61079584610678565b810160208510156107a4578190505b6107b86107b085610678565b830182610758565b50505b505050565b5f82821c905092915050565b5f6107db5f19846008026107c0565b1980831691505092915050565b5f6107f383836107cc565b9150826002028217905092915050565b61080c826104c4565b67ffffffffffffffff811115610825576108246102b0565b5b61082f82546105a0565b61083a82828561077a565b5f60209050601f83116001811461086b575f8415610859578287015190505b61086385826107e8565b8655506108ca565b601f198416610879866105d0565b5f5b828110156108a05784890151825560018201915060208501945060208101905061087b565b868310156108bd57848901516108b9601f8916826107cc565b8355505b6001600288020188555050505b505050505050565b7f4e487b71000000000000000000000000000000000000000000000000000000005f52601160045260245ffd5b5f6109098261041b565b91506109148361041b565b925082820190508082111561092c5761092b6108d2565b5b9291505056fea26469706673582212204942daa1edd24f26cde30e7d33cac9187bdea76f31ab92d96d9560c7e90066d864736f6c634300081a0033",
					"opcodes": "PUSH1 0x80 PUSH1 0x40 MSTORE CALLVALUE DUP1 ISZERO PUSH1 0xE JUMPI PUSH0 DUP1 REVERT JUMPDEST POP PUSH2 0x968 DUP1 PUSH2 0x1C PUSH0 CODECOPY PUSH0 RETURN INVALID PUSH1 0x80 PUSH1 0x40 MSTORE CALLVALUE DUP1 ISZERO PUSH2 0xF JUMPI PUSH0 DUP1 REVERT JUMPDEST POP PUSH1 0x4 CALLDATASIZE LT PUSH2 0x3F JUMPI PUSH0 CALLDATALOAD PUSH1 0xE0 SHR DUP1 PUSH4 0x805265E5 EQ PUSH2 0x43 JUMPI DUP1 PUSH4 0xB9830FF1 EQ PUSH2 0x73 JUMPI DUP1 PUSH4 0xFC36E15B EQ PUSH2 0x7D JUMPI JUMPDEST PUSH0 DUP1 REVERT JUMPDEST PUSH2 0x5D PUSH1 0x4 DUP1 CALLDATASIZE SUB DUP2 ADD SWAP1 PUSH2 0x58 SWAP2 SWAP1 PUSH2 0x3D4 JUMP JUMPDEST PUSH2 0x99 JUMP JUMPDEST PUSH1 0x40 MLOAD PUSH2 0x6A SWAP2 SWAP1 PUSH2 0x433 JUMP JUMPDEST PUSH1 0x40 MLOAD DUP1 SWAP2 SUB SWAP1 RETURN JUMPDEST PUSH2 0x7B PUSH2 0x102 JUMP JUMPDEST STOP JUMPDEST PUSH2 0x97 PUSH1 0x4 DUP1 CALLDATASIZE SUB DUP2 ADD SWAP1 PUSH2 0x92 SWAP2 SWAP1 PUSH2 0x3D4 JUMP JUMPDEST PUSH2 0x15E JUMP JUMPDEST STOP JUMPDEST PUSH0 DUP1 DUP3 MLOAD GT PUSH2 0xDD JUMPI PUSH1 0x40 MLOAD PUSH32 0x8C379A000000000000000000000000000000000000000000000000000000000 DUP2 MSTORE PUSH1 0x4 ADD PUSH2 0xD4 SWAP1 PUSH2 0x4A6 JUMP JUMPDEST PUSH1 0x40 MLOAD DUP1 SWAP2 SUB SWAP1 REVERT JUMPDEST PUSH0 DUP3 PUSH1 0x40 MLOAD PUSH2 0xEC SWAP2 SWAP1 PUSH2 0x530 JUMP JUMPDEST SWAP1 DUP2 MSTORE PUSH1 0x20 ADD PUSH1 0x40 MLOAD DUP1 SWAP2 SUB SWAP1 KECCAK256 SLOAD SWAP1 POP SWAP2 SWAP1 POP JUMP JUMPDEST PUSH0 JUMPDEST PUSH1 0x1 DUP1 SLOAD SWAP1 POP DUP2 LT ISZERO PUSH2 0x15B JUMPI PUSH0 DUP1 PUSH1 0x1 DUP4 DUP2 SLOAD DUP2 LT PUSH2 0x127 JUMPI PUSH2 0x126 PUSH2 0x546 JUMP JUMPDEST JUMPDEST SWAP1 PUSH0 MSTORE PUSH1 0x20 PUSH0 KECCAK256 ADD PUSH1 0x40 MLOAD PUSH2 0x13C SWAP2 SWAP1 PUSH2 0x662 JUMP JUMPDEST SWAP1 DUP2 MSTORE PUSH1 0x20 ADD PUSH1 0x40 MLOAD DUP1 SWAP2 SUB SWAP1 KECCAK256 DUP2 SWAP1 SSTORE POP DUP1 DUP1 PUSH1 0x1 ADD SWAP2 POP POP PUSH2 0x104 JUMP JUMPDEST POP JUMP JUMPDEST PUSH0 DUP2 MLOAD GT PUSH2 0x1A1 JUMPI PUSH1 0x40 MLOAD PUSH32 0x8C379A000000000000000000000000000000000000000000000000000000000 DUP2 MSTORE PUSH1 0x4 ADD PUSH2 0x198 SWAP1 PUSH2 0x4A6 JUMP JUMPDEST PUSH1 0x40 MLOAD DUP1 SWAP2 SUB SWAP1 REVERT JUMPDEST PUSH1 0x2 DUP2 PUSH1 0x40 MLOAD PUSH2 0x1B1 SWAP2 SWAP1 PUSH2 0x530 JUMP JUMPDEST SWAP1 DUP2 MSTORE PUSH1 0x20 ADD PUSH1 0x40 MLOAD DUP1 SWAP2 SUB SWAP1 KECCAK256 PUSH0 SWAP1 SLOAD SWAP1 PUSH2 0x100 EXP SWAP1 DIV PUSH1 0xFF AND PUSH2 0x239 JUMPI PUSH1 0x1 DUP2 SWAP1 DUP1 PUSH1 0x1 DUP2 SLOAD ADD DUP1 DUP3 SSTORE DUP1 SWAP2 POP POP PUSH1 0x1 SWAP1 SUB SWAP1 PUSH0 MSTORE PUSH1 0x20 PUSH0 KECCAK256 ADD PUSH0 SWAP1 SWAP2 SWAP1 SWAP2 SWAP1 SWAP2 POP SWAP1 DUP2 PUSH2 0x201 SWAP2 SWAP1 PUSH2 0x803 JUMP JUMPDEST POP PUSH1 0x1 PUSH1 0x2 DUP3 PUSH1 0x40 MLOAD PUSH2 0x214 SWAP2 SWAP1 PUSH2 0x530 JUMP JUMPDEST SWAP1 DUP2 MSTORE PUSH1 0x20 ADD PUSH1 0x40 MLOAD DUP1 SWAP2 SUB SWAP1 KECCAK256 PUSH0 PUSH2 0x100 EXP DUP2 SLOAD DUP2 PUSH1 0xFF MUL NOT AND SWAP1 DUP4 ISZERO ISZERO MUL OR SWAP1 SSTORE POP JUMPDEST PUSH1 0x1 PUSH0 DUP3 PUSH1 0x40 MLOAD PUSH2 0x24A SWAP2 SWAP1 PUSH2 0x530 JUMP JUMPDEST SWAP1 DUP2 MSTORE PUSH1 0x20 ADD PUSH1 0x40 MLOAD DUP1 SWAP2 SUB SWAP1 KECCAK256 SLOAD PUSH2 0x263 SWAP2 SWAP1 PUSH2 0x8FF JUMP JUMPDEST PUSH0 DUP3 PUSH1 0x40 MLOAD PUSH2 0x272 SWAP2 SWAP1 PUSH2 0x530 JUMP JUMPDEST SWAP1 DUP2 MSTORE PUSH1 0x20 ADD PUSH1 0x40 MLOAD DUP1 SWAP2 SUB SWAP1 KECCAK256 DUP2 SWAP1 SSTORE POP POP JUMP JUMPDEST PUSH0 PUSH1 0x40 MLOAD SWAP1 POP SWAP1 JUMP JUMPDEST PUSH0 DUP1 REVERT JUMPDEST PUSH0 DUP1 REVERT JUMPDEST PUSH0 DUP1 REVERT JUMPDEST PUSH0 DUP1 REVERT JUMPDEST PUSH0 PUSH1 0x1F NOT PUSH1 0x1F DUP4 ADD AND SWAP1 POP SWAP2 SWAP1 POP JUMP JUMPDEST PUSH32 0x4E487B7100000000000000000000000000000000000000000000000000000000 PUSH0 MSTORE PUSH1 0x41 PUSH1 0x4 MSTORE PUSH1 0x24 PUSH0 REVERT JUMPDEST PUSH2 0x2E6 DUP3 PUSH2 0x2A0 JUMP JUMPDEST DUP2 ADD DUP2 DUP2 LT PUSH8 0xFFFFFFFFFFFFFFFF DUP3 GT OR ISZERO PUSH2 0x305 JUMPI PUSH2 0x304 PUSH2 0x2B0 JUMP JUMPDEST JUMPDEST DUP1 PUSH1 0x40 MSTORE POP POP POP JUMP JUMPDEST PUSH0 PUSH2 0x317 PUSH2 0x287 JUMP JUMPDEST SWAP1 POP PUSH2 0x323 DUP3 DUP3 PUSH2 0x2DD JUMP JUMPDEST SWAP2 SWAP1 POP JUMP JUMPDEST PUSH0 PUSH8 0xFFFFFFFFFFFFFFFF DUP3 GT ISZERO PUSH2 0x342 JUMPI PUSH2 0x341 PUSH2 0x2B0 JUMP JUMPDEST JUMPDEST PUSH2 0x34B DUP3 PUSH2 0x2A0 JUMP JUMPDEST SWAP1 POP PUSH1 0x20 DUP2 ADD SWAP1 POP SWAP2 SWAP1 POP JUMP JUMPDEST DUP3 DUP2 DUP4 CALLDATACOPY PUSH0 DUP4 DUP4 ADD MSTORE POP POP POP JUMP JUMPDEST PUSH0 PUSH2 0x378 PUSH2 0x373 DUP5 PUSH2 0x328 JUMP JUMPDEST PUSH2 0x30E JUMP JUMPDEST SWAP1 POP DUP3 DUP2 MSTORE PUSH1 0x20 DUP2 ADD DUP5 DUP5 DUP5 ADD GT ISZERO PUSH2 0x394 JUMPI PUSH2 0x393 PUSH2 0x29C JUMP JUMPDEST JUMPDEST PUSH2 0x39F DUP5 DUP3 DUP6 PUSH2 0x358 JUMP JUMPDEST POP SWAP4 SWAP3 POP POP POP JUMP JUMPDEST PUSH0 DUP3 PUSH1 0x1F DUP4 ADD SLT PUSH2 0x3BB JUMPI PUSH2 0x3BA PUSH2 0x298 JUMP JUMPDEST JUMPDEST DUP2 CALLDATALOAD PUSH2 0x3CB DUP5 DUP3 PUSH1 0x20 DUP7 ADD PUSH2 0x366 JUMP JUMPDEST SWAP2 POP POP SWAP3 SWAP2 POP POP JUMP JUMPDEST PUSH0 PUSH1 0x20 DUP3 DUP5 SUB SLT ISZERO PUSH2 0x3E9 JUMPI PUSH2 0x3E8 PUSH2 0x290 JUMP JUMPDEST JUMPDEST PUSH0 DUP3 ADD CALLDATALOAD PUSH8 0xFFFFFFFFFFFFFFFF DUP2 GT ISZERO PUSH2 0x406 JUMPI PUSH2 0x405 PUSH2 0x294 JUMP JUMPDEST JUMPDEST PUSH2 0x412 DUP5 DUP3 DUP6 ADD PUSH2 0x3A7 JUMP JUMPDEST SWAP2 POP POP SWAP3 SWAP2 POP POP JUMP JUMPDEST PUSH0 DUP2 SWAP1 POP SWAP2 SWAP1 POP JUMP JUMPDEST PUSH2 0x42D DUP2 PUSH2 0x41B JUMP JUMPDEST DUP3 MSTORE POP POP JUMP JUMPDEST PUSH0 PUSH1 0x20 DUP3 ADD SWAP1 POP PUSH2 0x446 PUSH0 DUP4 ADD DUP5 PUSH2 0x424 JUMP JUMPDEST SWAP3 SWAP2 POP POP JUMP JUMPDEST PUSH0 DUP3 DUP3 MSTORE PUSH1 0x20 DUP3 ADD SWAP1 POP SWAP3 SWAP2 POP POP JUMP JUMPDEST PUSH32 0x43616E646964617465206E616D652063616E6E6F7420626520656D7074790000 PUSH0 DUP3 ADD MSTORE POP JUMP JUMPDEST PUSH0 PUSH2 0x490 PUSH1 0x1E DUP4 PUSH2 0x44C JUMP JUMPDEST SWAP2 POP PUSH2 0x49B DUP3 PUSH2 0x45C JUMP JUMPDEST PUSH1 0x20 DUP3 ADD SWAP1 POP SWAP2 SWAP1 POP JUMP JUMPDEST PUSH0 PUSH1 0x20 DUP3 ADD SWAP1 POP DUP2 DUP2 SUB PUSH0 DUP4 ADD MSTORE PUSH2 0x4BD DUP2 PUSH2 0x484 JUMP JUMPDEST SWAP1 POP SWAP2 SWAP1 POP JUMP JUMPDEST PUSH0 DUP2 MLOAD SWAP1 POP SWAP2 SWAP1 POP JUMP JUMPDEST PUSH0 DUP2 SWAP1 POP SWAP3 SWAP2 POP POP JUMP JUMPDEST PUSH0 JUMPDEST DUP4 DUP2 LT ISZERO PUSH2 0x4F5 JUMPI DUP1 DUP3 ADD MLOAD DUP2 DUP5 ADD MSTORE PUSH1 0x20 DUP2 ADD SWAP1 POP PUSH2 0x4DA JUMP JUMPDEST PUSH0 DUP5 DUP5 ADD MSTORE POP POP POP POP JUMP JUMPDEST PUSH0 PUSH2 0x50A DUP3 PUSH2 0x4C4 JUMP JUMPDEST PUSH2 0x514 DUP2 DUP6 PUSH2 0x4CE JUMP JUMPDEST SWAP4 POP PUSH2 0x524 DUP2 DUP6 PUSH1 0x20 DUP7 ADD PUSH2 0x4D8 JUMP JUMPDEST DUP1 DUP5 ADD SWAP2 POP POP SWAP3 SWAP2 POP POP JUMP JUMPDEST PUSH0 PUSH2 0x53B DUP3 DUP5 PUSH2 0x500 JUMP JUMPDEST SWAP2 POP DUP2 SWAP1 POP SWAP3 SWAP2 POP POP JUMP JUMPDEST PUSH32 0x4E487B7100000000000000000000000000000000000000000000000000000000 PUSH0 MSTORE PUSH1 0x32 PUSH1 0x4 MSTORE PUSH1 0x24 PUSH0 REVERT JUMPDEST PUSH32 0x4E487B7100000000000000000000000000000000000000000000000000000000 PUSH0 MSTORE PUSH1 0x22 PUSH1 0x4 MSTORE PUSH1 0x24 PUSH0 REVERT JUMPDEST PUSH0 PUSH1 0x2 DUP3 DIV SWAP1 POP PUSH1 0x1 DUP3 AND DUP1 PUSH2 0x5B7 JUMPI PUSH1 0x7F DUP3 AND SWAP2 POP JUMPDEST PUSH1 0x20 DUP3 LT DUP2 SUB PUSH2 0x5CA JUMPI PUSH2 0x5C9 PUSH2 0x573 JUMP JUMPDEST JUMPDEST POP SWAP2 SWAP1 POP JUMP JUMPDEST PUSH0 DUP2 SWAP1 POP DUP2 PUSH0 MSTORE PUSH1 0x20 PUSH0 KECCAK256 SWAP1 POP SWAP2 SWAP1 POP JUMP JUMPDEST PUSH0 DUP2 SLOAD PUSH2 0x5EE DUP2 PUSH2 0x5A0 JUMP JUMPDEST PUSH2 0x5F8 DUP2 DUP7 PUSH2 0x4CE JUMP JUMPDEST SWAP5 POP PUSH1 0x1 DUP3 AND PUSH0 DUP2 EQ PUSH2 0x612 JUMPI PUSH1 0x1 DUP2 EQ PUSH2 0x627 JUMPI PUSH2 0x659 JUMP JUMPDEST PUSH1 0xFF NOT DUP4 AND DUP7 MSTORE DUP2 ISZERO ISZERO DUP3 MUL DUP7 ADD SWAP4 POP PUSH2 0x659 JUMP JUMPDEST PUSH2 0x630 DUP6 PUSH2 0x5D0 JUMP JUMPDEST PUSH0 JUMPDEST DUP4 DUP2 LT ISZERO PUSH2 0x651 JUMPI DUP2 SLOAD DUP2 DUP10 ADD MSTORE PUSH1 0x1 DUP3 ADD SWAP2 POP PUSH1 0x20 DUP2 ADD SWAP1 POP PUSH2 0x632 JUMP JUMPDEST DUP4 DUP9 ADD SWAP6 POP POP POP JUMPDEST POP POP POP SWAP3 SWAP2 POP POP JUMP JUMPDEST PUSH0 PUSH2 0x66D DUP3 DUP5 PUSH2 0x5E2 JUMP JUMPDEST SWAP2 POP DUP2 SWAP1 POP SWAP3 SWAP2 POP POP JUMP JUMPDEST PUSH0 PUSH1 0x20 PUSH1 0x1F DUP4 ADD DIV SWAP1 POP SWAP2 SWAP1 POP JUMP JUMPDEST PUSH0 DUP3 DUP3 SHL SWAP1 POP SWAP3 SWAP2 POP POP JUMP JUMPDEST PUSH0 PUSH1 0x8 DUP4 MUL PUSH2 0x6C2 PUSH32 0xFFFFFFFFFFFFFFFFFFFFFFFFFFFFFFFFFFFFFFFFFFFFFFFFFFFFFFFFFFFFFFFF DUP3 PUSH2 0x687 JUMP JUMPDEST PUSH2 0x6CC DUP7 DUP4 PUSH2 0x687 JUMP JUMPDEST SWAP6 POP DUP1 NOT DUP5 AND SWAP4 POP DUP1 DUP7 AND DUP5 OR SWAP3 POP POP POP SWAP4 SWAP3 POP POP POP JUMP JUMPDEST PUSH0 DUP2 SWAP1 POP SWAP2 SWAP1 POP JUMP JUMPDEST PUSH0 PUSH2 0x707 PUSH2 0x702 PUSH2 0x6FD DUP5 PUSH2 0x41B JUMP JUMPDEST PUSH2 0x6E4 JUMP JUMPDEST PUSH2 0x41B JUMP JUMPDEST SWAP1 POP SWAP2 SWAP1 POP JUMP JUMPDEST PUSH0 DUP2 SWAP1 POP SWAP2 SWAP1 POP JUMP JUMPDEST PUSH2 0x720 DUP4 PUSH2 0x6ED JUMP JUMPDEST PUSH2 0x734 PUSH2 0x72C DUP3 PUSH2 0x70E JUMP JUMPDEST DUP5 DUP5 SLOAD PUSH2 0x693 JUMP JUMPDEST DUP3 SSTORE POP POP POP POP JUMP JUMPDEST PUSH0 SWAP1 JUMP JUMPDEST PUSH2 0x748 PUSH2 0x73C JUMP JUMPDEST PUSH2 0x753 DUP2 DUP5 DUP5 PUSH2 0x717 JUMP JUMPDEST POP POP POP JUMP JUMPDEST JUMPDEST DUP2 DUP2 LT ISZERO PUSH2 0x776 JUMPI PUSH2 0x76B PUSH0 DUP3 PUSH2 0x740 JUMP JUMPDEST PUSH1 0x1 DUP2 ADD SWAP1 POP PUSH2 0x759 JUMP JUMPDEST POP POP JUMP JUMPDEST PUSH1 0x1F DUP3 GT ISZERO PUSH2 0x7BB JUMPI PUSH2 0x78C DUP2 PUSH2 0x5D0 JUMP JUMPDEST PUSH2 0x795 DUP5 PUSH2 0x678 JUMP JUMPDEST DUP2 ADD PUSH1 0x20 DUP6 LT ISZERO PUSH2 0x7A4 JUMPI DUP2 SWAP1 POP JUMPDEST PUSH2 0x7B8 PUSH2 0x7B0 DUP6 PUSH2 0x678 JUMP JUMPDEST DUP4 ADD DUP3 PUSH2 0x758 JUMP JUMPDEST POP POP JUMPDEST POP POP POP JUMP JUMPDEST PUSH0 DUP3 DUP3 SHR SWAP1 POP SWAP3 SWAP2 POP POP JUMP JUMPDEST PUSH0 PUSH2 0x7DB PUSH0 NOT DUP5 PUSH1 0x8 MUL PUSH2 0x7C0 JUMP JUMPDEST NOT DUP1 DUP4 AND SWAP2 POP POP SWAP3 SWAP2 POP POP JUMP JUMPDEST PUSH0 PUSH2 0x7F3 DUP4 DUP4 PUSH2 0x7CC JUMP JUMPDEST SWAP2 POP DUP3 PUSH1 0x2 MUL DUP3 OR SWAP1 POP SWAP3 SWAP2 POP POP JUMP JUMPDEST PUSH2 0x80C DUP3 PUSH2 0x4C4 JUMP JUMPDEST PUSH8 0xFFFFFFFFFFFFFFFF DUP2 GT ISZERO PUSH2 0x825 JUMPI PUSH2 0x824 PUSH2 0x2B0 JUMP JUMPDEST JUMPDEST PUSH2 0x82F DUP3 SLOAD PUSH2 0x5A0 JUMP JUMPDEST PUSH2 0x83A DUP3 DUP3 DUP6 PUSH2 0x77A JUMP JUMPDEST PUSH0 PUSH1 0x20 SWAP1 POP PUSH1 0x1F DUP4 GT PUSH1 0x1 DUP2 EQ PUSH2 0x86B JUMPI PUSH0 DUP5 ISZERO PUSH2 0x859 JUMPI DUP3 DUP8 ADD MLOAD SWAP1 POP JUMPDEST PUSH2 0x863 DUP6 DUP3 PUSH2 0x7E8 JUMP JUMPDEST DUP7 SSTORE POP PUSH2 0x8CA JUMP JUMPDEST PUSH1 0x1F NOT DUP5 AND PUSH2 0x879 DUP7 PUSH2 0x5D0 JUMP JUMPDEST PUSH0 JUMPDEST DUP3 DUP2 LT ISZERO PUSH2 0x8A0 JUMPI DUP5 DUP10 ADD MLOAD DUP3 SSTORE PUSH1 0x1 DUP3 ADD SWAP2 POP PUSH1 0x20 DUP6 ADD SWAP5 POP PUSH1 0x20 DUP2 ADD SWAP1 POP PUSH2 0x87B JUMP JUMPDEST DUP7 DUP4 LT ISZERO PUSH2 0x8BD JUMPI DUP5 DUP10 ADD MLOAD PUSH2 0x8B9 PUSH1 0x1F DUP10 AND DUP3 PUSH2 0x7CC JUMP JUMPDEST DUP4 SSTORE POP JUMPDEST PUSH1 0x1 PUSH1 0x2 DUP9 MUL ADD DUP9 SSTORE POP POP POP JUMPDEST POP POP POP POP POP POP JUMP JUMPDEST PUSH32 0x4E487B7100000000000000000000000000000000000000000000000000000000 PUSH0 MSTORE PUSH1 0x11 PUSH1 0x4 MSTORE PUSH1 0x24 PUSH0 REVERT JUMPDEST PUSH0 PUSH2 0x909 DUP3 PUSH2 0x41B JUMP JUMPDEST SWAP2 POP PUSH2 0x914 DUP4 PUSH2 0x41B JUMP JUMPDEST SWAP3 POP DUP3 DUP3 ADD SWAP1 POP DUP1 DUP3 GT ISZERO PUSH2 0x92C JUMPI PUSH2 0x92B PUSH2 0x8D2 JUMP JUMPDEST JUMPDEST SWAP3 SWAP2 POP POP JUMP INVALID LOG2 PUSH5 0x6970667358 0x22 SLT KECCAK256 BLOBHASH TIMESTAMP 0xDA LOG1 0xED 0xD2 0x4F 0x26 0xCD 0xE3 0xE PUSH30 0x33CAC9187BDEA76F31AB92D96D9560C7E90066D864736F6C634300081A00 CALLER "
				},
				"gasEstimates": {
					"creation": {
						"codeDepositCost": "481600",
						"executionCost": "516",
						"totalCost": "482116"
					},
					"external": {
						"getVotes(string)": "infinite",
						"resetVotes()": "infinite",
						"vote(string)": "infinite"
					}
				},
				"methodIdentifiers": {
					"getVotes(string)": "805265e5",
					"resetVotes()": "b9830ff1",
					"vote(string)": "fc36e15b"
				}
			},
			"storageLayout": {
				"storage": [
					{
						"astId": 5,
						"contract": "Voting.sol:Voting",
						"label": "votes",
						"offset": 0,
						"slot": "0",
						"type": "t_mapping(t_string_memory_ptr,t_uint256)"
					},
					{
						"astId": 8,
						"contract": "Voting.sol:Voting",
						"label": "candidates",
						"offset": 0,
						"slot": "1",
						"type": "t_array(t_string_storage)dyn_storage"
					},
					{
						"astId": 12,
						"contract": "Voting.sol:Voting",
						"label": "candidateExists",
						"offset": 0,
						"slot": "2",
						"type": "t_mapping(t_string_memory_ptr,t_bool)"
					}
				],
				"types": {
					"t_array(t_string_storage)dyn_storage": {
						"base": "t_string_storage",
						"encoding": "dynamic_array",
						"label": "string[]",
						"numberOfBytes": "32"
					},
					"t_bool": {
						"encoding": "inplace",
						"label": "bool",
						"numberOfBytes": "1"
					},
					"t_mapping(t_string_memory_ptr,t_bool)": {
						"encoding": "mapping",
						"key": "t_string_memory_ptr",
						"label": "mapping(string => bool)",
						"numberOfBytes": "32",
						"value": "t_bool"
					},
					"t_mapping(t_string_memory_ptr,t_uint256)": {
						"encoding": "mapping",
						"key": "t_string_memory_ptr",
						"label": "mapping(string => uint256)",
						"numberOfBytes": "32",
						"value": "t_uint256"
					},
					"t_string_memory_ptr": {
						"encoding": "bytes",
						"label": "string",
						"numberOfBytes": "32"
					},
					"t_string_storage": {
						"encoding": "bytes",
						"label": "string",
						"numberOfBytes": "32"
					},
					"t_uint256": {
						"encoding": "inplace",
						"label": "uint256",
						"numberOfBytes": "32"
					}
				}
			},
			"userdoc": {
				"kind": "user",
				"methods": {},
				"version": 1
			}
		}
	}
}