{
	"RomanToInt.sol": {
		"RomanToInt": {
			"abi": [
				{
					"inputs": [],
					"stateMutability": "nonpayable",
					"type": "constructor"
				},
				{
					"inputs": [
						{
							"internalType": "string",
							"name": "romanStr",
							"type": "string"
						}
					],
					"name": "romanToInt",
					"outputs": [
						{
							"internalType": "uint256",
							"name": "",
							"type": "uint256"
						}
					],
					"stateMutability": "pure",
					"type": "function"
				}
			],
			"devdoc": {
				"kind": "dev",
				"methods": {},
				"version": 1
			},
			"evm": {
				"assembly": "    /* \"RomanToInt.sol\":57:1719  contract RomanToInt {... */\n  mstore(0x40, 0x80)\n    /* \"RomanToInt.sol\":174:414  constructor() {... */\n  callvalue\n  dup1\n  iszero\n  tag_1\n  jumpi\n  0x00\n  dup1\n  revert\ntag_1:\n  pop\n    /* \"RomanToInt.sol\":217:218  1 */\n  0x01\n    /* \"RomanToInt.sol\":198:209  romanValues */\n  0x00\n    /* \"RomanToInt.sol\":198:214  romanValues[\"I\"] */\n  dup1\n  and(not(0xffffffffffffffffffffffffffffffffffffffffffffffffffffffffffffff), 0x4900000000000000000000000000000000000000000000000000000000000000)\n  dup2\n  mstore\n  0x20\n  add\n  swap1\n  dup2\n  mstore\n  0x20\n  add\n  0x00\n  keccak256\n    /* \"RomanToInt.sol\":198:218  romanValues[\"I\"] = 1 */\n  dup2\n  swap1\n  sstore\n  pop\n    /* \"RomanToInt.sol\":247:248  5 */\n  0x05\n    /* \"RomanToInt.sol\":228:239  romanValues */\n  0x00\n    /* \"RomanToInt.sol\":228:244  romanValues[\"V\"] */\n  dup1\n  and(not(0xffffffffffffffffffffffffffffffffffffffffffffffffffffffffffffff), 0x5600000000000000000000000000000000000000000000000000000000000000)\n  dup2\n  mstore\n  0x20\n  add\n  swap1\n  dup2\n  mstore\n  0x20\n  add\n  0x00\n  keccak256\n    /* \"RomanToInt.sol\":228:248  romanValues[\"V\"] = 5 */\n  dup2\n  swap1\n  sstore\n  pop\n    /* \"RomanToInt.sol\":277:279  10 */\n  0x0a\n    /* \"RomanToInt.sol\":258:269  romanValues */\n  0x00\n    /* \"RomanToInt.sol\":258:274  romanValues[\"X\"] */\n  dup1\n  and(not(0xffffffffffffffffffffffffffffffffffffffffffffffffffffffffffffff), 0x5800000000000000000000000000000000000000000000000000000000000000)\n  dup2\n  mstore\n  0x20\n  add\n  swap1\n  dup2\n  mstore\n  0x20\n  add\n  0x00\n  keccak256\n    /* \"RomanToInt.sol\":258:279  romanValues[\"X\"] = 10 */\n  dup2\n  swap1\n  sstore\n  pop\n    /* \"RomanToInt.sol\":308:310  50 */\n  0x32\n    /* \"RomanToInt.sol\":289:300  romanValues */\n  0x00\n    /* \"RomanToInt.sol\":289:305  romanValues[\"L\"] */\n  dup1\n  and(not(0xffffffffffffffffffffffffffffffffffffffffffffffffffffffffffffff), 0x4c00000000000000000000000000000000000000000000000000000000000000)\n  dup2\n  mstore\n  0x20\n  add\n  swap1\n  dup2\n  mstore\n  0x20\n  add\n  0x00\n  keccak256\n    /* \"RomanToInt.sol\":289:310  romanValues[\"L\"] = 50 */\n  dup2\n  swap1\n  sstore\n  pop\n    /* \"RomanToInt.sol\":339:342  100 */\n  0x64\n    /* \"RomanToInt.sol\":320:331  romanValues */\n  0x00\n    /* \"RomanToInt.sol\":320:336  romanValues[\"C\"] */\n  dup1\n  and(not(0xffffffffffffffffffffffffffffffffffffffffffffffffffffffffffffff), 0x4300000000000000000000000000000000000000000000000000000000000000)\n  dup2\n  mstore\n  0x20\n  add\n  swap1\n  dup2\n  mstore\n  0x20\n  add\n  0x00\n  keccak256\n    /* \"RomanToInt.sol\":320:342  romanValues[\"C\"] = 100 */\n  dup2\n  swap1\n  sstore\n  pop\n    /* \"RomanToInt.sol\":371:374  500 */\n  0x01f4\n    /* \"RomanToInt.sol\":352:363  romanValues */\n  0x00\n    /* \"RomanToInt.sol\":352:368  romanValues[\"D\"] */\n  dup1\n  and(not(0xffffffffffffffffffffffffffffffffffffffffffffffffffffffffffffff), 0x4400000000000000000000000000000000000000000000000000000000000000)\n  dup2\n  mstore\n  0x20\n  add\n  swap1\n  dup2\n  mstore\n  0x20\n  add\n  0x00\n  keccak256\n    /* \"RomanToInt.sol\":352:374  romanValues[\"D\"] = 500 */\n  dup2\n  swap1\n  sstore\n  pop\n    /* \"RomanToInt.sol\":403:407  1000 */\n  0x03e8\n    /* \"RomanToInt.sol\":384:395  romanValues */\n  0x00\n    /* \"RomanToInt.sol\":384:400  romanValues[\"M\"] */\n  dup1\n  and(not(0xffffffffffffffffffffffffffffffffffffffffffffffffffffffffffffff), 0x4d00000000000000000000000000000000000000000000000000000000000000)\n  dup2\n  mstore\n  0x20\n  add\n  swap1\n  dup2\n  mstore\n  0x20\n  add\n  0x00\n  keccak256\n    /* \"RomanToInt.sol\":384:407  romanValues[\"M\"] = 1000 */\n  dup2\n  swap1\n  sstore\n  pop\n    /* \"RomanToInt.sol\":57:1719  contract RomanToInt {... */\n  dataSize(sub_0)\n  dup1\n  dataOffset(sub_0)\n  0x00\n  codecopy\n  0x00\n  return\nstop\n\nsub_0: assembly {\n        /* \"RomanToInt.sol\":57:1719  contract RomanToInt {... */\n      mstore(0x40, 0x80)\n      callvalue\n      dup1\n      iszero\n      tag_1\n      jumpi\n      0x00\n      dup1\n      revert\n    tag_1:\n      pop\n      jumpi(tag_2, lt(calldatasize, 0x04))\n      shr(0xe0, calldataload(0x00))\n      dup1\n      0xcb159dfe\n      eq\n      tag_3\n      jumpi\n    tag_2:\n      0x00\n      dup1\n      revert\n        /* \"RomanToInt.sol\":420:1260  function romanToInt(string memory romanStr) public pure returns (uint256) {... */\n    tag_3:\n      tag_4\n      0x04\n      dup1\n      calldatasize\n      sub\n      dup2\n      add\n      swap1\n      tag_5\n      swap2\n      swap1\n      tag_6\n      jump\t// in\n    tag_5:\n      tag_7\n      jump\t// in\n    tag_4:\n      mload(0x40)\n      tag_8\n      swap2\n      swap1\n      tag_9\n      jump\t// in\n    tag_8:\n      mload(0x40)\n      dup1\n      swap2\n      sub\n      swap1\n      return\n    tag_7:\n        /* \"RomanToInt.sol\":485:492  uint256 */\n      0x00\n        /* \"RomanToInt.sol\":504:527  bytes memory romanBytes */\n      dup1\n        /* \"RomanToInt.sol\":536:544  romanStr */\n      dup3\n        /* \"RomanToInt.sol\":504:545  bytes memory romanBytes = bytes(romanStr) */\n      swap1\n      pop\n        /* \"RomanToInt.sol\":555:566  uint256 len */\n      0x00\n        /* \"RomanToInt.sol\":569:579  romanBytes */\n      dup2\n        /* \"RomanToInt.sol\":569:586  romanBytes.length */\n      mload\n        /* \"RomanToInt.sol\":555:586  uint256 len = romanBytes.length */\n      swap1\n      pop\n        /* \"RomanToInt.sol\":610:611  0 */\n      0x00\n        /* \"RomanToInt.sol\":604:607  len */\n      dup2\n        /* \"RomanToInt.sol\":604:611  len > 0 */\n      gt\n        /* \"RomanToInt.sol\":596:641  require(len > 0, \"Roman number cannot empty\") */\n      tag_11\n      jumpi\n      mload(0x40)\n      0x08c379a000000000000000000000000000000000000000000000000000000000\n      dup2\n      mstore\n      0x04\n      add\n      tag_12\n      swap1\n      tag_13\n      jump\t// in\n    tag_12:\n      mload(0x40)\n      dup1\n      swap2\n      sub\n      swap1\n      revert\n    tag_11:\n        /* \"RomanToInt.sol\":651:665  uint256 result */\n      0x00\n        /* \"RomanToInt.sol\":685:694  uint256 i */\n      dup1\n        /* \"RomanToInt.sol\":680:1231  for (uint256 i = 0; i < len; i++) {... */\n    tag_14:\n        /* \"RomanToInt.sol\":704:707  len */\n      dup3\n        /* \"RomanToInt.sol\":700:701  i */\n      dup2\n        /* \"RomanToInt.sol\":700:707  i < len */\n      lt\n        /* \"RomanToInt.sol\":680:1231  for (uint256 i = 0; i < len; i++) {... */\n      iszero\n      tag_15\n      jumpi\n        /* \"RomanToInt.sol\":728:748  uint256 currentValue */\n      0x00\n        /* \"RomanToInt.sol\":751:779  getRomanValue(romanBytes[i]) */\n      tag_17\n        /* \"RomanToInt.sol\":765:775  romanBytes */\n      dup6\n        /* \"RomanToInt.sol\":776:777  i */\n      dup4\n        /* \"RomanToInt.sol\":765:778  romanBytes[i] */\n      dup2\n      mload\n      dup2\n      lt\n      tag_18\n      jumpi\n      tag_19\n      tag_20\n      jump\t// in\n    tag_19:\n    tag_18:\n      0x20\n      add\n      add\n      mload\n      0xf8\n      shr\n      0xf8\n      shl\n        /* \"RomanToInt.sol\":751:764  getRomanValue */\n      tag_21\n        /* \"RomanToInt.sol\":751:779  getRomanValue(romanBytes[i]) */\n      jump\t// in\n    tag_17:\n        /* \"RomanToInt.sol\":728:779  uint256 currentValue = getRomanValue(romanBytes[i]) */\n      swap1\n      pop\n        /* \"RomanToInt.sol\":874:877  len */\n      dup4\n        /* \"RomanToInt.sol\":870:871  1 */\n      0x01\n        /* \"RomanToInt.sol\":866:867  i */\n      dup4\n        /* \"RomanToInt.sol\":866:871  i + 1 */\n      tag_22\n      swap2\n      swap1\n      tag_23\n      jump\t// in\n    tag_22:\n        /* \"RomanToInt.sol\":866:877  i + 1 < len */\n      lt\n        /* \"RomanToInt.sol\":862:1185  if (i + 1 < len) {... */\n      iszero\n      tag_24\n      jumpi\n        /* \"RomanToInt.sol\":897:914  uint256 nextValue */\n      0x00\n        /* \"RomanToInt.sol\":917:949  getRomanValue(romanBytes[i + 1]) */\n      tag_25\n        /* \"RomanToInt.sol\":931:941  romanBytes */\n      dup7\n        /* \"RomanToInt.sol\":946:947  1 */\n      0x01\n        /* \"RomanToInt.sol\":942:943  i */\n      dup6\n        /* \"RomanToInt.sol\":942:947  i + 1 */\n      tag_26\n      swap2\n      swap1\n      tag_23\n      jump\t// in\n    tag_26:\n        /* \"RomanToInt.sol\":931:948  romanBytes[i + 1] */\n      dup2\n      mload\n      dup2\n      lt\n      tag_27\n      jumpi\n      tag_28\n      tag_20\n      jump\t// in\n    tag_28:\n    tag_27:\n      0x20\n      add\n      add\n      mload\n      0xf8\n      shr\n      0xf8\n      shl\n        /* \"RomanToInt.sol\":917:930  getRomanValue */\n      tag_21\n        /* \"RomanToInt.sol\":917:949  getRomanValue(romanBytes[i + 1]) */\n      jump\t// in\n    tag_25:\n        /* \"RomanToInt.sol\":897:949  uint256 nextValue = getRomanValue(romanBytes[i + 1]) */\n      swap1\n      pop\n        /* \"RomanToInt.sol\":986:995  nextValue */\n      dup1\n        /* \"RomanToInt.sol\":971:983  currentValue */\n      dup3\n        /* \"RomanToInt.sol\":971:995  currentValue < nextValue */\n      lt\n        /* \"RomanToInt.sol\":967:1171  if (currentValue < nextValue) {... */\n      iszero\n      tag_29\n      jumpi\n        /* \"RomanToInt.sol\":1042:1054  currentValue */\n      dup2\n        /* \"RomanToInt.sol\":1030:1039  nextValue */\n      dup2\n        /* \"RomanToInt.sol\":1030:1054  nextValue - currentValue */\n      tag_30\n      swap2\n      swap1\n      tag_31\n      jump\t// in\n    tag_30:\n        /* \"RomanToInt.sol\":1019:1055  result += (nextValue - currentValue) */\n      dup5\n      tag_32\n      swap2\n      swap1\n      tag_23\n      jump\t// in\n    tag_32:\n      swap4\n      pop\n        /* \"RomanToInt.sol\":1119:1122  i++ */\n      dup3\n      dup1\n      tag_33\n      swap1\n      tag_34\n      jump\t// in\n    tag_33:\n      swap4\n      pop\n      pop\n        /* \"RomanToInt.sol\":1144:1152  continue */\n      pop\n      pop\n      jump(tag_16)\n        /* \"RomanToInt.sol\":967:1171  if (currentValue < nextValue) {... */\n    tag_29:\n        /* \"RomanToInt.sol\":879:1185  {... */\n      pop\n        /* \"RomanToInt.sol\":862:1185  if (i + 1 < len) {... */\n    tag_24:\n        /* \"RomanToInt.sol\":1208:1220  currentValue */\n      dup1\n        /* \"RomanToInt.sol\":1198:1220  result += currentValue */\n      dup4\n      tag_35\n      swap2\n      swap1\n      tag_23\n      jump\t// in\n    tag_35:\n      swap3\n      pop\n        /* \"RomanToInt.sol\":714:1231  {... */\n      pop\n        /* \"RomanToInt.sol\":680:1231  for (uint256 i = 0; i < len; i++) {... */\n    tag_16:\n        /* \"RomanToInt.sol\":709:712  i++ */\n      dup1\n      dup1\n      tag_36\n      swap1\n      tag_34\n      jump\t// in\n    tag_36:\n      swap2\n      pop\n      pop\n        /* \"RomanToInt.sol\":680:1231  for (uint256 i = 0; i < len; i++) {... */\n      jump(tag_14)\n    tag_15:\n      pop\n        /* \"RomanToInt.sol\":1247:1253  result */\n      dup1\n        /* \"RomanToInt.sol\":1240:1253  return result */\n      swap4\n      pop\n      pop\n      pop\n      pop\n        /* \"RomanToInt.sol\":420:1260  function romanToInt(string memory romanStr) public pure returns (uint256) {... */\n      swap2\n      swap1\n      pop\n      jump\t// out\n        /* \"RomanToInt.sol\":1306:1717  function getRomanValue(bytes1 romanChar) private pure returns (uint256) {... */\n    tag_21:\n        /* \"RomanToInt.sol\":1369:1376  uint256 */\n      0x00\n        /* \"RomanToInt.sol\":1392:1408  romanChar == \"I\" */\n      0x4900000000000000000000000000000000000000000000000000000000000000\n        /* \"RomanToInt.sol\":1392:1401  romanChar */\n      dup3\n        /* \"RomanToInt.sol\":1392:1408  romanChar == \"I\" */\n      not(0xffffffffffffffffffffffffffffffffffffffffffffffffffffffffffffff)\n      and\n      sub\n        /* \"RomanToInt.sol\":1388:1418  if (romanChar == \"I\") return 1 */\n      tag_38\n      jumpi\n        /* \"RomanToInt.sol\":1417:1418  1 */\n      0x01\n        /* \"RomanToInt.sol\":1410:1418  return 1 */\n      swap1\n      pop\n      jump(tag_37)\n        /* \"RomanToInt.sol\":1388:1418  if (romanChar == \"I\") return 1 */\n    tag_38:\n        /* \"RomanToInt.sol\":1432:1448  romanChar == \"V\" */\n      0x5600000000000000000000000000000000000000000000000000000000000000\n        /* \"RomanToInt.sol\":1432:1441  romanChar */\n      dup3\n        /* \"RomanToInt.sol\":1432:1448  romanChar == \"V\" */\n      not(0xffffffffffffffffffffffffffffffffffffffffffffffffffffffffffffff)\n      and\n      sub\n        /* \"RomanToInt.sol\":1428:1458  if (romanChar == \"V\") return 5 */\n      tag_39\n      jumpi\n        /* \"RomanToInt.sol\":1457:1458  5 */\n      0x05\n        /* \"RomanToInt.sol\":1450:1458  return 5 */\n      swap1\n      pop\n      jump(tag_37)\n        /* \"RomanToInt.sol\":1428:1458  if (romanChar == \"V\") return 5 */\n    tag_39:\n        /* \"RomanToInt.sol\":1472:1488  romanChar == \"X\" */\n      0x5800000000000000000000000000000000000000000000000000000000000000\n        /* \"RomanToInt.sol\":1472:1481  romanChar */\n      dup3\n        /* \"RomanToInt.sol\":1472:1488  romanChar == \"X\" */\n      not(0xffffffffffffffffffffffffffffffffffffffffffffffffffffffffffffff)\n      and\n      sub\n        /* \"RomanToInt.sol\":1468:1499  if (romanChar == \"X\") return 10 */\n      tag_40\n      jumpi\n        /* \"RomanToInt.sol\":1497:1499  10 */\n      0x0a\n        /* \"RomanToInt.sol\":1490:1499  return 10 */\n      swap1\n      pop\n      jump(tag_37)\n        /* \"RomanToInt.sol\":1468:1499  if (romanChar == \"X\") return 10 */\n    tag_40:\n        /* \"RomanToInt.sol\":1513:1529  romanChar == \"L\" */\n      0x4c00000000000000000000000000000000000000000000000000000000000000\n        /* \"RomanToInt.sol\":1513:1522  romanChar */\n      dup3\n        /* \"RomanToInt.sol\":1513:1529  romanChar == \"L\" */\n      not(0xffffffffffffffffffffffffffffffffffffffffffffffffffffffffffffff)\n      and\n      sub\n        /* \"RomanToInt.sol\":1509:1540  if (romanChar == \"L\") return 50 */\n      tag_41\n      jumpi\n        /* \"RomanToInt.sol\":1538:1540  50 */\n      0x32\n        /* \"RomanToInt.sol\":1531:1540  return 50 */\n      swap1\n      pop\n      jump(tag_37)\n        /* \"RomanToInt.sol\":1509:1540  if (romanChar == \"L\") return 50 */\n    tag_41:\n        /* \"RomanToInt.sol\":1554:1570  romanChar == \"C\" */\n      0x4300000000000000000000000000000000000000000000000000000000000000\n        /* \"RomanToInt.sol\":1554:1563  romanChar */\n      dup3\n        /* \"RomanToInt.sol\":1554:1570  romanChar == \"C\" */\n      not(0xffffffffffffffffffffffffffffffffffffffffffffffffffffffffffffff)\n      and\n      sub\n        /* \"RomanToInt.sol\":1550:1582  if (romanChar == \"C\") return 100 */\n      tag_42\n      jumpi\n        /* \"RomanToInt.sol\":1579:1582  100 */\n      0x64\n        /* \"RomanToInt.sol\":1572:1582  return 100 */\n      swap1\n      pop\n      jump(tag_37)\n        /* \"RomanToInt.sol\":1550:1582  if (romanChar == \"C\") return 100 */\n    tag_42:\n        /* \"RomanToInt.sol\":1596:1612  romanChar == \"D\" */\n      0x4400000000000000000000000000000000000000000000000000000000000000\n        /* \"RomanToInt.sol\":1596:1605  romanChar */\n      dup3\n        /* \"RomanToInt.sol\":1596:1612  romanChar == \"D\" */\n      not(0xffffffffffffffffffffffffffffffffffffffffffffffffffffffffffffff)\n      and\n      sub\n        /* \"RomanToInt.sol\":1592:1624  if (romanChar == \"D\") return 500 */\n      tag_43\n      jumpi\n        /* \"RomanToInt.sol\":1621:1624  500 */\n      0x01f4\n        /* \"RomanToInt.sol\":1614:1624  return 500 */\n      swap1\n      pop\n      jump(tag_37)\n        /* \"RomanToInt.sol\":1592:1624  if (romanChar == \"D\") return 500 */\n    tag_43:\n        /* \"RomanToInt.sol\":1638:1654  romanChar == \"M\" */\n      0x4d00000000000000000000000000000000000000000000000000000000000000\n        /* \"RomanToInt.sol\":1638:1647  romanChar */\n      dup3\n        /* \"RomanToInt.sol\":1638:1654  romanChar == \"M\" */\n      not(0xffffffffffffffffffffffffffffffffffffffffffffffffffffffffffffff)\n      and\n      sub\n        /* \"RomanToInt.sol\":1634:1667  if (romanChar == \"M\") return 1000 */\n      tag_44\n      jumpi\n        /* \"RomanToInt.sol\":1663:1667  1000 */\n      0x03e8\n        /* \"RomanToInt.sol\":1656:1667  return 1000 */\n      swap1\n      pop\n      jump(tag_37)\n        /* \"RomanToInt.sol\":1634:1667  if (romanChar == \"M\") return 1000 */\n    tag_44:\n        /* \"RomanToInt.sol\":1677:1710  revert(\"Invalid Roman character\") */\n      mload(0x40)\n      0x08c379a000000000000000000000000000000000000000000000000000000000\n      dup2\n      mstore\n      0x04\n      add\n      tag_45\n      swap1\n      tag_46\n      jump\t// in\n    tag_45:\n      mload(0x40)\n      dup1\n      swap2\n      sub\n      swap1\n      revert\n        /* \"RomanToInt.sol\":1306:1717  function getRomanValue(bytes1 romanChar) private pure returns (uint256) {... */\n    tag_37:\n      swap2\n      swap1\n      pop\n      jump\t// out\n        /* \"#utility.yul\":7:82   */\n    tag_47:\n        /* \"#utility.yul\":40:46   */\n      0x00\n        /* \"#utility.yul\":73:75   */\n      0x40\n        /* \"#utility.yul\":67:76   */\n      mload\n        /* \"#utility.yul\":57:76   */\n      swap1\n      pop\n        /* \"#utility.yul\":7:82   */\n      swap1\n      jump\t// out\n        /* \"#utility.yul\":88:205   */\n    tag_48:\n        /* \"#utility.yul\":197:198   */\n      0x00\n        /* \"#utility.yul\":194:195   */\n      dup1\n        /* \"#utility.yul\":187:199   */\n      revert\n        /* \"#utility.yul\":211:328   */\n    tag_49:\n        /* \"#utility.yul\":320:321   */\n      0x00\n        /* \"#utility.yul\":317:318   */\n      dup1\n        /* \"#utility.yul\":310:322   */\n      revert\n        /* \"#utility.yul\":334:451   */\n    tag_50:\n        /* \"#utility.yul\":443:444   */\n      0x00\n        /* \"#utility.yul\":440:441   */\n      dup1\n        /* \"#utility.yul\":433:445   */\n      revert\n        /* \"#utility.yul\":457:574   */\n    tag_51:\n        /* \"#utility.yul\":566:567   */\n      0x00\n        /* \"#utility.yul\":563:564   */\n      dup1\n        /* \"#utility.yul\":556:568   */\n      revert\n        /* \"#utility.yul\":580:682   */\n    tag_52:\n        /* \"#utility.yul\":621:627   */\n      0x00\n        /* \"#utility.yul\":672:674   */\n      0x1f\n        /* \"#utility.yul\":668:675   */\n      not\n        /* \"#utility.yul\":663:665   */\n      0x1f\n        /* \"#utility.yul\":656:661   */\n      dup4\n        /* \"#utility.yul\":652:666   */\n      add\n        /* \"#utility.yul\":648:676   */\n      and\n        /* \"#utility.yul\":638:676   */\n      swap1\n      pop\n        /* \"#utility.yul\":580:682   */\n      swap2\n      swap1\n      pop\n      jump\t// out\n        /* \"#utility.yul\":688:868   */\n    tag_53:\n        /* \"#utility.yul\":736:813   */\n      0x4e487b7100000000000000000000000000000000000000000000000000000000\n        /* \"#utility.yul\":733:734   */\n      0x00\n        /* \"#utility.yul\":726:814   */\n      mstore\n        /* \"#utility.yul\":833:837   */\n      0x41\n        /* \"#utility.yul\":830:831   */\n      0x04\n        /* \"#utility.yul\":823:838   */\n      mstore\n        /* \"#utility.yul\":857:861   */\n      0x24\n        /* \"#utility.yul\":854:855   */\n      0x00\n        /* \"#utility.yul\":847:862   */\n      revert\n        /* \"#utility.yul\":874:1155   */\n    tag_54:\n        /* \"#utility.yul\":957:984   */\n      tag_77\n        /* \"#utility.yul\":979:983   */\n      dup3\n        /* \"#utility.yul\":957:984   */\n      tag_52\n      jump\t// in\n    tag_77:\n        /* \"#utility.yul\":949:955   */\n      dup2\n        /* \"#utility.yul\":945:985   */\n      add\n        /* \"#utility.yul\":1087:1093   */\n      dup2\n        /* \"#utility.yul\":1075:1085   */\n      dup2\n        /* \"#utility.yul\":1072:1094   */\n      lt\n        /* \"#utility.yul\":1051:1069   */\n      0xffffffffffffffff\n        /* \"#utility.yul\":1039:1049   */\n      dup3\n        /* \"#utility.yul\":1036:1070   */\n      gt\n        /* \"#utility.yul\":1033:1095   */\n      or\n        /* \"#utility.yul\":1030:1118   */\n      iszero\n      tag_78\n      jumpi\n        /* \"#utility.yul\":1098:1116   */\n      tag_79\n      tag_53\n      jump\t// in\n    tag_79:\n        /* \"#utility.yul\":1030:1118   */\n    tag_78:\n        /* \"#utility.yul\":1138:1148   */\n      dup1\n        /* \"#utility.yul\":1134:1136   */\n      0x40\n        /* \"#utility.yul\":1127:1149   */\n      mstore\n        /* \"#utility.yul\":917:1155   */\n      pop\n        /* \"#utility.yul\":874:1155   */\n      pop\n      pop\n      jump\t// out\n        /* \"#utility.yul\":1161:1290   */\n    tag_55:\n        /* \"#utility.yul\":1195:1201   */\n      0x00\n        /* \"#utility.yul\":1222:1242   */\n      tag_81\n      tag_47\n      jump\t// in\n    tag_81:\n        /* \"#utility.yul\":1212:1242   */\n      swap1\n      pop\n        /* \"#utility.yul\":1251:1284   */\n      tag_82\n        /* \"#utility.yul\":1279:1283   */\n      dup3\n        /* \"#utility.yul\":1271:1277   */\n      dup3\n        /* \"#utility.yul\":1251:1284   */\n      tag_54\n      jump\t// in\n    tag_82:\n        /* \"#utility.yul\":1161:1290   */\n      swap2\n      swap1\n      pop\n      jump\t// out\n        /* \"#utility.yul\":1296:1604   */\n    tag_56:\n        /* \"#utility.yul\":1358:1362   */\n      0x00\n        /* \"#utility.yul\":1448:1466   */\n      0xffffffffffffffff\n        /* \"#utility.yul\":1440:1446   */\n      dup3\n        /* \"#utility.yul\":1437:1467   */\n      gt\n        /* \"#utility.yul\":1434:1490   */\n      iszero\n      tag_84\n      jumpi\n        /* \"#utility.yul\":1470:1488   */\n      tag_85\n      tag_53\n      jump\t// in\n    tag_85:\n        /* \"#utility.yul\":1434:1490   */\n    tag_84:\n        /* \"#utility.yul\":1508:1537   */\n      tag_86\n        /* \"#utility.yul\":1530:1536   */\n      dup3\n        /* \"#utility.yul\":1508:1537   */\n      tag_52\n      jump\t// in\n    tag_86:\n        /* \"#utility.yul\":1500:1537   */\n      swap1\n      pop\n        /* \"#utility.yul\":1592:1596   */\n      0x20\n        /* \"#utility.yul\":1586:1590   */\n      dup2\n        /* \"#utility.yul\":1582:1597   */\n      add\n        /* \"#utility.yul\":1574:1597   */\n      swap1\n      pop\n        /* \"#utility.yul\":1296:1604   */\n      swap2\n      swap1\n      pop\n      jump\t// out\n        /* \"#utility.yul\":1610:1758   */\n    tag_57:\n        /* \"#utility.yul\":1708:1714   */\n      dup3\n        /* \"#utility.yul\":1703:1706   */\n      dup2\n        /* \"#utility.yul\":1698:1701   */\n      dup4\n        /* \"#utility.yul\":1685:1715   */\n      calldatacopy\n        /* \"#utility.yul\":1749:1750   */\n      0x00\n        /* \"#utility.yul\":1740:1746   */\n      dup4\n        /* \"#utility.yul\":1735:1738   */\n      dup4\n        /* \"#utility.yul\":1731:1747   */\n      add\n        /* \"#utility.yul\":1724:1751   */\n      mstore\n        /* \"#utility.yul\":1610:1758   */\n      pop\n      pop\n      pop\n      jump\t// out\n        /* \"#utility.yul\":1764:2189   */\n    tag_58:\n        /* \"#utility.yul\":1842:1847   */\n      0x00\n        /* \"#utility.yul\":1867:1933   */\n      tag_89\n        /* \"#utility.yul\":1883:1932   */\n      tag_90\n        /* \"#utility.yul\":1925:1931   */\n      dup5\n        /* \"#utility.yul\":1883:1932   */\n      tag_56\n      jump\t// in\n    tag_90:\n        /* \"#utility.yul\":1867:1933   */\n      tag_55\n      jump\t// in\n    tag_89:\n        /* \"#utility.yul\":1858:1933   */\n      swap1\n      pop\n        /* \"#utility.yul\":1956:1962   */\n      dup3\n        /* \"#utility.yul\":1949:1954   */\n      dup2\n        /* \"#utility.yul\":1942:1963   */\n      mstore\n        /* \"#utility.yul\":1994:1998   */\n      0x20\n        /* \"#utility.yul\":1987:1992   */\n      dup2\n        /* \"#utility.yul\":1983:1999   */\n      add\n        /* \"#utility.yul\":2032:2035   */\n      dup5\n        /* \"#utility.yul\":2023:2029   */\n      dup5\n        /* \"#utility.yul\":2018:2021   */\n      dup5\n        /* \"#utility.yul\":2014:2030   */\n      add\n        /* \"#utility.yul\":2011:2036   */\n      gt\n        /* \"#utility.yul\":2008:2120   */\n      iszero\n      tag_91\n      jumpi\n        /* \"#utility.yul\":2039:2118   */\n      tag_92\n      tag_51\n      jump\t// in\n    tag_92:\n        /* \"#utility.yul\":2008:2120   */\n    tag_91:\n        /* \"#utility.yul\":2129:2183   */\n      tag_93\n        /* \"#utility.yul\":2176:2182   */\n      dup5\n        /* \"#utility.yul\":2171:2174   */\n      dup3\n        /* \"#utility.yul\":2166:2169   */\n      dup6\n        /* \"#utility.yul\":2129:2183   */\n      tag_57\n      jump\t// in\n    tag_93:\n        /* \"#utility.yul\":1848:2189   */\n      pop\n        /* \"#utility.yul\":1764:2189   */\n      swap4\n      swap3\n      pop\n      pop\n      pop\n      jump\t// out\n        /* \"#utility.yul\":2209:2549   */\n    tag_59:\n        /* \"#utility.yul\":2265:2270   */\n      0x00\n        /* \"#utility.yul\":2314:2317   */\n      dup3\n        /* \"#utility.yul\":2307:2311   */\n      0x1f\n        /* \"#utility.yul\":2299:2305   */\n      dup4\n        /* \"#utility.yul\":2295:2312   */\n      add\n        /* \"#utility.yul\":2291:2318   */\n      slt\n        /* \"#utility.yul\":2281:2403   */\n      tag_95\n      jumpi\n        /* \"#utility.yul\":2322:2401   */\n      tag_96\n      tag_50\n      jump\t// in\n    tag_96:\n        /* \"#utility.yul\":2281:2403   */\n    tag_95:\n        /* \"#utility.yul\":2439:2445   */\n      dup2\n        /* \"#utility.yul\":2426:2446   */\n      calldataload\n        /* \"#utility.yul\":2464:2543   */\n      tag_97\n        /* \"#utility.yul\":2539:2542   */\n      dup5\n        /* \"#utility.yul\":2531:2537   */\n      dup3\n        /* \"#utility.yul\":2524:2528   */\n      0x20\n        /* \"#utility.yul\":2516:2522   */\n      dup7\n        /* \"#utility.yul\":2512:2529   */\n      add\n        /* \"#utility.yul\":2464:2543   */\n      tag_58\n      jump\t// in\n    tag_97:\n        /* \"#utility.yul\":2455:2543   */\n      swap2\n      pop\n        /* \"#utility.yul\":2271:2549   */\n      pop\n        /* \"#utility.yul\":2209:2549   */\n      swap3\n      swap2\n      pop\n      pop\n      jump\t// out\n        /* \"#utility.yul\":2555:3064   */\n    tag_6:\n        /* \"#utility.yul\":2624:2630   */\n      0x00\n        /* \"#utility.yul\":2673:2675   */\n      0x20\n        /* \"#utility.yul\":2661:2670   */\n      dup3\n        /* \"#utility.yul\":2652:2659   */\n      dup5\n        /* \"#utility.yul\":2648:2671   */\n      sub\n        /* \"#utility.yul\":2644:2676   */\n      slt\n        /* \"#utility.yul\":2641:2760   */\n      iszero\n      tag_99\n      jumpi\n        /* \"#utility.yul\":2679:2758   */\n      tag_100\n      tag_48\n      jump\t// in\n    tag_100:\n        /* \"#utility.yul\":2641:2760   */\n    tag_99:\n        /* \"#utility.yul\":2827:2828   */\n      0x00\n        /* \"#utility.yul\":2816:2825   */\n      dup3\n        /* \"#utility.yul\":2812:2829   */\n      add\n        /* \"#utility.yul\":2799:2830   */\n      calldataload\n        /* \"#utility.yul\":2857:2875   */\n      0xffffffffffffffff\n        /* \"#utility.yul\":2849:2855   */\n      dup2\n        /* \"#utility.yul\":2846:2876   */\n      gt\n        /* \"#utility.yul\":2843:2960   */\n      iszero\n      tag_101\n      jumpi\n        /* \"#utility.yul\":2879:2958   */\n      tag_102\n      tag_49\n      jump\t// in\n    tag_102:\n        /* \"#utility.yul\":2843:2960   */\n    tag_101:\n        /* \"#utility.yul\":2984:3047   */\n      tag_103\n        /* \"#utility.yul\":3039:3046   */\n      dup5\n        /* \"#utility.yul\":3030:3036   */\n      dup3\n        /* \"#utility.yul\":3019:3028   */\n      dup6\n        /* \"#utility.yul\":3015:3037   */\n      add\n        /* \"#utility.yul\":2984:3047   */\n      tag_59\n      jump\t// in\n    tag_103:\n        /* \"#utility.yul\":2974:3047   */\n      swap2\n      pop\n        /* \"#utility.yul\":2770:3057   */\n      pop\n        /* \"#utility.yul\":2555:3064   */\n      swap3\n      swap2\n      pop\n      pop\n      jump\t// out\n        /* \"#utility.yul\":3070:3147   */\n    tag_60:\n        /* \"#utility.yul\":3107:3114   */\n      0x00\n        /* \"#utility.yul\":3136:3141   */\n      dup2\n        /* \"#utility.yul\":3125:3141   */\n      swap1\n      pop\n        /* \"#utility.yul\":3070:3147   */\n      swap2\n      swap1\n      pop\n      jump\t// out\n        /* \"#utility.yul\":3153:3271   */\n    tag_61:\n        /* \"#utility.yul\":3240:3264   */\n      tag_106\n        /* \"#utility.yul\":3258:3263   */\n      dup2\n        /* \"#utility.yul\":3240:3264   */\n      tag_60\n      jump\t// in\n    tag_106:\n        /* \"#utility.yul\":3235:3238   */\n      dup3\n        /* \"#utility.yul\":3228:3265   */\n      mstore\n        /* \"#utility.yul\":3153:3271   */\n      pop\n      pop\n      jump\t// out\n        /* \"#utility.yul\":3277:3499   */\n    tag_9:\n        /* \"#utility.yul\":3370:3374   */\n      0x00\n        /* \"#utility.yul\":3408:3410   */\n      0x20\n        /* \"#utility.yul\":3397:3406   */\n      dup3\n        /* \"#utility.yul\":3393:3411   */\n      add\n        /* \"#utility.yul\":3385:3411   */\n      swap1\n      pop\n        /* \"#utility.yul\":3421:3492   */\n      tag_108\n        /* \"#utility.yul\":3489:3490   */\n      0x00\n        /* \"#utility.yul\":3478:3487   */\n      dup4\n        /* \"#utility.yul\":3474:3491   */\n      add\n        /* \"#utility.yul\":3465:3471   */\n      dup5\n        /* \"#utility.yul\":3421:3492   */\n      tag_61\n      jump\t// in\n    tag_108:\n        /* \"#utility.yul\":3277:3499   */\n      swap3\n      swap2\n      pop\n      pop\n      jump\t// out\n        /* \"#utility.yul\":3505:3674   */\n    tag_62:\n        /* \"#utility.yul\":3589:3600   */\n      0x00\n        /* \"#utility.yul\":3623:3629   */\n      dup3\n        /* \"#utility.yul\":3618:3621   */\n      dup3\n        /* \"#utility.yul\":3611:3630   */\n      mstore\n        /* \"#utility.yul\":3663:3667   */\n      0x20\n        /* \"#utility.yul\":3658:3661   */\n      dup3\n        /* \"#utility.yul\":3654:3668   */\n      add\n        /* \"#utility.yul\":3639:3668   */\n      swap1\n      pop\n        /* \"#utility.yul\":3505:3674   */\n      swap3\n      swap2\n      pop\n      pop\n      jump\t// out\n        /* \"#utility.yul\":3680:3855   */\n    tag_63:\n        /* \"#utility.yul\":3820:3847   */\n      0x526f6d616e206e756d6265722063616e6e6f7420656d70747900000000000000\n        /* \"#utility.yul\":3816:3817   */\n      0x00\n        /* \"#utility.yul\":3808:3814   */\n      dup3\n        /* \"#utility.yul\":3804:3818   */\n      add\n        /* \"#utility.yul\":3797:3848   */\n      mstore\n        /* \"#utility.yul\":3680:3855   */\n      pop\n      jump\t// out\n        /* \"#utility.yul\":3861:4227   */\n    tag_64:\n        /* \"#utility.yul\":4003:4006   */\n      0x00\n        /* \"#utility.yul\":4024:4091   */\n      tag_112\n        /* \"#utility.yul\":4088:4090   */\n      0x19\n        /* \"#utility.yul\":4083:4086   */\n      dup4\n        /* \"#utility.yul\":4024:4091   */\n      tag_62\n      jump\t// in\n    tag_112:\n        /* \"#utility.yul\":4017:4091   */\n      swap2\n      pop\n        /* \"#utility.yul\":4100:4193   */\n      tag_113\n        /* \"#utility.yul\":4189:4192   */\n      dup3\n        /* \"#utility.yul\":4100:4193   */\n      tag_63\n      jump\t// in\n    tag_113:\n        /* \"#utility.yul\":4218:4220   */\n      0x20\n        /* \"#utility.yul\":4213:4216   */\n      dup3\n        /* \"#utility.yul\":4209:4221   */\n      add\n        /* \"#utility.yul\":4202:4221   */\n      swap1\n      pop\n        /* \"#utility.yul\":3861:4227   */\n      swap2\n      swap1\n      pop\n      jump\t// out\n        /* \"#utility.yul\":4233:4652   */\n    tag_13:\n        /* \"#utility.yul\":4399:4403   */\n      0x00\n        /* \"#utility.yul\":4437:4439   */\n      0x20\n        /* \"#utility.yul\":4426:4435   */\n      dup3\n        /* \"#utility.yul\":4422:4440   */\n      add\n        /* \"#utility.yul\":4414:4440   */\n      swap1\n      pop\n        /* \"#utility.yul\":4486:4495   */\n      dup2\n        /* \"#utility.yul\":4480:4484   */\n      dup2\n        /* \"#utility.yul\":4476:4496   */\n      sub\n        /* \"#utility.yul\":4472:4473   */\n      0x00\n        /* \"#utility.yul\":4461:4470   */\n      dup4\n        /* \"#utility.yul\":4457:4474   */\n      add\n        /* \"#utility.yul\":4450:4497   */\n      mstore\n        /* \"#utility.yul\":4514:4645   */\n      tag_115\n        /* \"#utility.yul\":4640:4644   */\n      dup2\n        /* \"#utility.yul\":4514:4645   */\n      tag_64\n      jump\t// in\n    tag_115:\n        /* \"#utility.yul\":4506:4645   */\n      swap1\n      pop\n        /* \"#utility.yul\":4233:4652   */\n      swap2\n      swap1\n      pop\n      jump\t// out\n        /* \"#utility.yul\":4658:4838   */\n    tag_20:\n        /* \"#utility.yul\":4706:4783   */\n      0x4e487b7100000000000000000000000000000000000000000000000000000000\n        /* \"#utility.yul\":4703:4704   */\n      0x00\n        /* \"#utility.yul\":4696:4784   */\n      mstore\n        /* \"#utility.yul\":4803:4807   */\n      0x32\n        /* \"#utility.yul\":4800:4801   */\n      0x04\n        /* \"#utility.yul\":4793:4808   */\n      mstore\n        /* \"#utility.yul\":4827:4831   */\n      0x24\n        /* \"#utility.yul\":4824:4825   */\n      0x00\n        /* \"#utility.yul\":4817:4832   */\n      revert\n        /* \"#utility.yul\":4844:5024   */\n    tag_65:\n        /* \"#utility.yul\":4892:4969   */\n      0x4e487b7100000000000000000000000000000000000000000000000000000000\n        /* \"#utility.yul\":4889:4890   */\n      0x00\n        /* \"#utility.yul\":4882:4970   */\n      mstore\n        /* \"#utility.yul\":4989:4993   */\n      0x11\n        /* \"#utility.yul\":4986:4987   */\n      0x04\n        /* \"#utility.yul\":4979:4994   */\n      mstore\n        /* \"#utility.yul\":5013:5017   */\n      0x24\n        /* \"#utility.yul\":5010:5011   */\n      0x00\n        /* \"#utility.yul\":5003:5018   */\n      revert\n        /* \"#utility.yul\":5030:5221   */\n    tag_23:\n        /* \"#utility.yul\":5070:5073   */\n      0x00\n        /* \"#utility.yul\":5089:5109   */\n      tag_119\n        /* \"#utility.yul\":5107:5108   */\n      dup3\n        /* \"#utility.yul\":5089:5109   */\n      tag_60\n      jump\t// in\n    tag_119:\n        /* \"#utility.yul\":5084:5109   */\n      swap2\n      pop\n        /* \"#utility.yul\":5123:5143   */\n      tag_120\n        /* \"#utility.yul\":5141:5142   */\n      dup4\n        /* \"#utility.yul\":5123:5143   */\n      tag_60\n      jump\t// in\n    tag_120:\n        /* \"#utility.yul\":5118:5143   */\n      swap3\n      pop\n        /* \"#utility.yul\":5166:5167   */\n      dup3\n        /* \"#utility.yul\":5163:5164   */\n      dup3\n        /* \"#utility.yul\":5159:5168   */\n      add\n        /* \"#utility.yul\":5152:5168   */\n      swap1\n      pop\n        /* \"#utility.yul\":5187:5190   */\n      dup1\n        /* \"#utility.yul\":5184:5185   */\n      dup3\n        /* \"#utility.yul\":5181:5191   */\n      gt\n        /* \"#utility.yul\":5178:5214   */\n      iszero\n      tag_121\n      jumpi\n        /* \"#utility.yul\":5194:5212   */\n      tag_122\n      tag_65\n      jump\t// in\n    tag_122:\n        /* \"#utility.yul\":5178:5214   */\n    tag_121:\n        /* \"#utility.yul\":5030:5221   */\n      swap3\n      swap2\n      pop\n      pop\n      jump\t// out\n        /* \"#utility.yul\":5227:5421   */\n    tag_31:\n        /* \"#utility.yul\":5267:5271   */\n      0x00\n        /* \"#utility.yul\":5287:5307   */\n      tag_124\n        /* \"#utility.yul\":5305:5306   */\n      dup3\n        /* \"#utility.yul\":5287:5307   */\n      tag_60\n      jump\t// in\n    tag_124:\n        /* \"#utility.yul\":5282:5307   */\n      swap2\n      pop\n        /* \"#utility.yul\":5321:5341   */\n      tag_125\n        /* \"#utility.yul\":5339:5340   */\n      dup4\n        /* \"#utility.yul\":5321:5341   */\n      tag_60\n      jump\t// in\n    tag_125:\n        /* \"#utility.yul\":5316:5341   */\n      swap3\n      pop\n        /* \"#utility.yul\":5365:5366   */\n      dup3\n        /* \"#utility.yul\":5362:5363   */\n      dup3\n        /* \"#utility.yul\":5358:5367   */\n      sub\n        /* \"#utility.yul\":5350:5367   */\n      swap1\n      pop\n        /* \"#utility.yul\":5389:5390   */\n      dup2\n        /* \"#utility.yul\":5383:5387   */\n      dup2\n        /* \"#utility.yul\":5380:5391   */\n      gt\n        /* \"#utility.yul\":5377:5414   */\n      iszero\n      tag_126\n      jumpi\n        /* \"#utility.yul\":5394:5412   */\n      tag_127\n      tag_65\n      jump\t// in\n    tag_127:\n        /* \"#utility.yul\":5377:5414   */\n    tag_126:\n        /* \"#utility.yul\":5227:5421   */\n      swap3\n      swap2\n      pop\n      pop\n      jump\t// out\n        /* \"#utility.yul\":5427:5660   */\n    tag_34:\n        /* \"#utility.yul\":5466:5469   */\n      0x00\n        /* \"#utility.yul\":5489:5513   */\n      tag_129\n        /* \"#utility.yul\":5507:5512   */\n      dup3\n        /* \"#utility.yul\":5489:5513   */\n      tag_60\n      jump\t// in\n    tag_129:\n        /* \"#utility.yul\":5480:5513   */\n      swap2\n      pop\n        /* \"#utility.yul\":5535:5601   */\n      0xffffffffffffffffffffffffffffffffffffffffffffffffffffffffffffffff\n        /* \"#utility.yul\":5528:5533   */\n      dup3\n        /* \"#utility.yul\":5525:5602   */\n      sub\n        /* \"#utility.yul\":5522:5625   */\n      tag_130\n      jumpi\n        /* \"#utility.yul\":5605:5623   */\n      tag_131\n      tag_65\n      jump\t// in\n    tag_131:\n        /* \"#utility.yul\":5522:5625   */\n    tag_130:\n        /* \"#utility.yul\":5652:5653   */\n      0x01\n        /* \"#utility.yul\":5645:5650   */\n      dup3\n        /* \"#utility.yul\":5641:5654   */\n      add\n        /* \"#utility.yul\":5634:5654   */\n      swap1\n      pop\n        /* \"#utility.yul\":5427:5660   */\n      swap2\n      swap1\n      pop\n      jump\t// out\n        /* \"#utility.yul\":5666:5839   */\n    tag_66:\n        /* \"#utility.yul\":5806:5831   */\n      0x496e76616c696420526f6d616e20636861726163746572000000000000000000\n        /* \"#utility.yul\":5802:5803   */\n      0x00\n        /* \"#utility.yul\":5794:5800   */\n      dup3\n        /* \"#utility.yul\":5790:5804   */\n      add\n        /* \"#utility.yul\":5783:5832   */\n      mstore\n        /* \"#utility.yul\":5666:5839   */\n      pop\n      jump\t// out\n        /* \"#utility.yul\":5845:6211   */\n    tag_67:\n        /* \"#utility.yul\":5987:5990   */\n      0x00\n        /* \"#utility.yul\":6008:6075   */\n      tag_134\n        /* \"#utility.yul\":6072:6074   */\n      0x17\n        /* \"#utility.yul\":6067:6070   */\n      dup4\n        /* \"#utility.yul\":6008:6075   */\n      tag_62\n      jump\t// in\n    tag_134:\n        /* \"#utility.yul\":6001:6075   */\n      swap2\n      pop\n        /* \"#utility.yul\":6084:6177   */\n      tag_135\n        /* \"#utility.yul\":6173:6176   */\n      dup3\n        /* \"#utility.yul\":6084:6177   */\n      tag_66\n      jump\t// in\n    tag_135:\n        /* \"#utility.yul\":6202:6204   */\n      0x20\n        /* \"#utility.yul\":6197:6200   */\n      dup3\n        /* \"#utility.yul\":6193:6205   */\n      add\n        /* \"#utility.yul\":6186:6205   */\n      swap1\n      pop\n        /* \"#utility.yul\":5845:6211   */\n      swap2\n      swap1\n      pop\n      jump\t// out\n        /* \"#utility.yul\":6217:6636   */\n    tag_46:\n        /* \"#utility.yul\":6383:6387   */\n      0x00\n        /* \"#utility.yul\":6421:6423   */\n      0x20\n        /* \"#utility.yul\":6410:6419   */\n      dup3\n        /* \"#utility.yul\":6406:6424   */\n      add\n        /* \"#utility.yul\":6398:6424   */\n      swap1\n      pop\n        /* \"#utility.yul\":6470:6479   */\n      dup2\n        /* \"#utility.yul\":6464:6468   */\n      dup2\n        /* \"#utility.yul\":6460:6480   */\n      sub\n        /* \"#utility.yul\":6456:6457   */\n      0x00\n        /* \"#utility.yul\":6445:6454   */\n      dup4\n        /* \"#utility.yul\":6441:6458   */\n      add\n        /* \"#utility.yul\":6434:6481   */\n      mstore\n        /* \"#utility.yul\":6498:6629   */\n      tag_137\n        /* \"#utility.yul\":6624:6628   */\n      dup2\n        /* \"#utility.yul\":6498:6629   */\n      tag_67\n      jump\t// in\n    tag_137:\n        /* \"#utility.yul\":6490:6629   */\n      swap1\n      pop\n        /* \"#utility.yul\":6217:6636   */\n      swap2\n      swap1\n      pop\n      jump\t// out\n\n    auxdata: 0xa26469706673582212204310354222f1f65390689ec29cea957e5246b52bef240ea50d76fca4fb6c864a64736f6c634300081a0033\n}\n",
				"bytecode": {
					"linkReferences": {},
					"object": "608060405234801561000f575f80fd5b5060015f807f49000000000000000000000000000000000000000000000000000000000000007effffffffffffffffffffffffffffffffffffffffffffffffffffffffffffff191681526020019081526020015f208190555060055f807f56000000000000000000000000000000000000000000000000000000000000007effffffffffffffffffffffffffffffffffffffffffffffffffffffffffffff191681526020019081526020015f2081905550600a5f807f58000000000000000000000000000000000000000000000000000000000000007effffffffffffffffffffffffffffffffffffffffffffffffffffffffffffff191681526020019081526020015f208190555060325f807f4c000000000000000000000000000000000000000000000000000000000000007effffffffffffffffffffffffffffffffffffffffffffffffffffffffffffff191681526020019081526020015f208190555060645f807f43000000000000000000000000000000000000000000000000000000000000007effffffffffffffffffffffffffffffffffffffffffffffffffffffffffffff191681526020019081526020015f20819055506101f45f807f44000000000000000000000000000000000000000000000000000000000000007effffffffffffffffffffffffffffffffffffffffffffffffffffffffffffff191681526020019081526020015f20819055506103e85f807f4d000000000000000000000000000000000000000000000000000000000000007effffffffffffffffffffffffffffffffffffffffffffffffffffffffffffff191681526020019081526020015f20819055506107f0806102875f395ff3fe608060405234801561000f575f80fd5b5060043610610029575f3560e01c8063cb159dfe1461002d575b5f80fd5b6100476004803603810190610042919061055b565b61005d565b60405161005491906105ba565b60405180910390f35b5f808290505f815190505f81116100a9576040517f08c379a00000000000000000000000000000000000000000000000000000000081526004016100a09061062d565b60405180910390fd5b5f805b82811015610181575f6100db8583815181106100cb576100ca61064b565b5b602001015160f81c60f81b61018d565b9050836001836100eb91906106a5565b101561015e575f6101248660018561010391906106a5565b815181106101145761011361064b565b5b602001015160f81c60f81b61018d565b90508082101561015c57818161013a91906106d8565b8461014591906106a5565b935082806101529061070b565b935050505061016e565b505b808361016a91906106a5565b9250505b80806101799061070b565b9150506100ac565b50809350505050919050565b5f7f4900000000000000000000000000000000000000000000000000000000000000827effffffffffffffffffffffffffffffffffffffffffffffffffffffffffffff1916036101e05760019050610409565b7f5600000000000000000000000000000000000000000000000000000000000000827effffffffffffffffffffffffffffffffffffffffffffffffffffffffffffff1916036102325760059050610409565b7f5800000000000000000000000000000000000000000000000000000000000000827effffffffffffffffffffffffffffffffffffffffffffffffffffffffffffff19160361028457600a9050610409565b7f4c00000000000000000000000000000000000000000000000000000000000000827effffffffffffffffffffffffffffffffffffffffffffffffffffffffffffff1916036102d65760329050610409565b7f4300000000000000000000000000000000000000000000000000000000000000827effffffffffffffffffffffffffffffffffffffffffffffffffffffffffffff1916036103285760649050610409565b7f4400000000000000000000000000000000000000000000000000000000000000827effffffffffffffffffffffffffffffffffffffffffffffffffffffffffffff19160361037b576101f49050610409565b7f4d00000000000000000000000000000000000000000000000000000000000000827effffffffffffffffffffffffffffffffffffffffffffffffffffffffffffff1916036103ce576103e89050610409565b6040517f08c379a00000000000000000000000000000000000000000000000000000000081526004016104009061079c565b60405180910390fd5b919050565b5f604051905090565b5f80fd5b5f80fd5b5f80fd5b5f80fd5b5f601f19601f8301169050919050565b7f4e487b71000000000000000000000000000000000000000000000000000000005f52604160045260245ffd5b61046d82610427565b810181811067ffffffffffffffff8211171561048c5761048b610437565b5b80604052505050565b5f61049e61040e565b90506104aa8282610464565b919050565b5f67ffffffffffffffff8211156104c9576104c8610437565b5b6104d282610427565b9050602081019050919050565b828183375f83830152505050565b5f6104ff6104fa846104af565b610495565b90508281526020810184848401111561051b5761051a610423565b5b6105268482856104df565b509392505050565b5f82601f8301126105425761054161041f565b5b81356105528482602086016104ed565b91505092915050565b5f602082840312156105705761056f610417565b5b5f82013567ffffffffffffffff81111561058d5761058c61041b565b5b6105998482850161052e565b91505092915050565b5f819050919050565b6105b4816105a2565b82525050565b5f6020820190506105cd5f8301846105ab565b92915050565b5f82825260208201905092915050565b7f526f6d616e206e756d6265722063616e6e6f7420656d707479000000000000005f82015250565b5f6106176019836105d3565b9150610622826105e3565b602082019050919050565b5f6020820190508181035f8301526106448161060b565b9050919050565b7f4e487b71000000000000000000000000000000000000000000000000000000005f52603260045260245ffd5b7f4e487b71000000000000000000000000000000000000000000000000000000005f52601160045260245ffd5b5f6106af826105a2565b91506106ba836105a2565b92508282019050808211156106d2576106d1610678565b5b92915050565b5f6106e2826105a2565b91506106ed836105a2565b925082820390508181111561070557610704610678565b5b92915050565b5f610715826105a2565b91507fffffffffffffffffffffffffffffffffffffffffffffffffffffffffffffffff820361074757610746610678565b5b600182019050919050565b7f496e76616c696420526f6d616e206368617261637465720000000000000000005f82015250565b5f6107866017836105d3565b915061079182610752565b602082019050919050565b5f6020820190508181035f8301526107b38161077a565b905091905056fea26469706673582212204310354222f1f65390689ec29cea957e5246b52bef240ea50d76fca4fb6c864a64736f6c634300081a0033",
					"opcodes": "PUSH1 0x80 PUSH1 0x40 MSTORE CALLVALUE DUP1 ISZERO PUSH2 0xF JUMPI PUSH0 DUP1 REVERT JUMPDEST POP PUSH1 0x1 PUSH0 DUP1 PUSH32 0x4900000000000000000000000000000000000000000000000000000000000000 PUSH31 0xFFFFFFFFFFFFFFFFFFFFFFFFFFFFFFFFFFFFFFFFFFFFFFFFFFFFFFFFFFFFFF NOT AND DUP2 MSTORE PUSH1 0x20 ADD SWAP1 DUP2 MSTORE PUSH1 0x20 ADD PUSH0 KECCAK256 DUP2 SWAP1 SSTORE POP PUSH1 0x5 PUSH0 DUP1 PUSH32 0x5600000000000000000000000000000000000000000000000000000000000000 PUSH31 0xFFFFFFFFFFFFFFFFFFFFFFFFFFFFFFFFFFFFFFFFFFFFFFFFFFFFFFFFFFFFFF NOT AND DUP2 MSTORE PUSH1 0x20 ADD SWAP1 DUP2 MSTORE PUSH1 0x20 ADD PUSH0 KECCAK256 DUP2 SWAP1 SSTORE POP PUSH1 0xA PUSH0 DUP1 PUSH32 0x5800000000000000000000000000000000000000000000000000000000000000 PUSH31 0xFFFFFFFFFFFFFFFFFFFFFFFFFFFFFFFFFFFFFFFFFFFFFFFFFFFFFFFFFFFFFF NOT AND DUP2 MSTORE PUSH1 0x20 ADD SWAP1 DUP2 MSTORE PUSH1 0x20 ADD PUSH0 KECCAK256 DUP2 SWAP1 SSTORE POP PUSH1 0x32 PUSH0 DUP1 PUSH32 0x4C00000000000000000000000000000000000000000000000000000000000000 PUSH31 0xFFFFFFFFFFFFFFFFFFFFFFFFFFFFFFFFFFFFFFFFFFFFFFFFFFFFFFFFFFFFFF NOT AND DUP2 MSTORE PUSH1 0x20 ADD SWAP1 DUP2 MSTORE PUSH1 0x20 ADD PUSH0 KECCAK256 DUP2 SWAP1 SSTORE POP PUSH1 0x64 PUSH0 DUP1 PUSH32 0x4300000000000000000000000000000000000000000000000000000000000000 PUSH31 0xFFFFFFFFFFFFFFFFFFFFFFFFFFFFFFFFFFFFFFFFFFFFFFFFFFFFFFFFFFFFFF NOT AND DUP2 MSTORE PUSH1 0x20 ADD SWAP1 DUP2 MSTORE PUSH1 0x20 ADD PUSH0 KECCAK256 DUP2 SWAP1 SSTORE POP PUSH2 0x1F4 PUSH0 DUP1 PUSH32 0x4400000000000000000000000000000000000000000000000000000000000000 PUSH31 0xFFFFFFFFFFFFFFFFFFFFFFFFFFFFFFFFFFFFFFFFFFFFFFFFFFFFFFFFFFFFFF NOT AND DUP2 MSTORE PUSH1 0x20 ADD SWAP1 DUP2 MSTORE PUSH1 0x20 ADD PUSH0 KECCAK256 DUP2 SWAP1 SSTORE POP PUSH2 0x3E8 PUSH0 DUP1 PUSH32 0x4D00000000000000000000000000000000000000000000000000000000000000 PUSH31 0xFFFFFFFFFFFFFFFFFFFFFFFFFFFFFFFFFFFFFFFFFFFFFFFFFFFFFFFFFFFFFF NOT AND DUP2 MSTORE PUSH1 0x20 ADD SWAP1 DUP2 MSTORE PUSH1 0x20 ADD PUSH0 KECCAK256 DUP2 SWAP1 SSTORE POP PUSH2 0x7F0 DUP1 PUSH2 0x287 PUSH0 CODECOPY PUSH0 RETURN INVALID PUSH1 0x80 PUSH1 0x40 MSTORE CALLVALUE DUP1 ISZERO PUSH2 0xF JUMPI PUSH0 DUP1 REVERT JUMPDEST POP PUSH1 0x4 CALLDATASIZE LT PUSH2 0x29 JUMPI PUSH0 CALLDATALOAD PUSH1 0xE0 SHR DUP1 PUSH4 0xCB159DFE EQ PUSH2 0x2D JUMPI JUMPDEST PUSH0 DUP1 REVERT JUMPDEST PUSH2 0x47 PUSH1 0x4 DUP1 CALLDATASIZE SUB DUP2 ADD SWAP1 PUSH2 0x42 SWAP2 SWAP1 PUSH2 0x55B JUMP JUMPDEST PUSH2 0x5D JUMP JUMPDEST PUSH1 0x40 MLOAD PUSH2 0x54 SWAP2 SWAP1 PUSH2 0x5BA JUMP JUMPDEST PUSH1 0x40 MLOAD DUP1 SWAP2 SUB SWAP1 RETURN JUMPDEST PUSH0 DUP1 DUP3 SWAP1 POP PUSH0 DUP2 MLOAD SWAP1 POP PUSH0 DUP2 GT PUSH2 0xA9 JUMPI PUSH1 0x40 MLOAD PUSH32 0x8C379A000000000000000000000000000000000000000000000000000000000 DUP2 MSTORE PUSH1 0x4 ADD PUSH2 0xA0 SWAP1 PUSH2 0x62D JUMP JUMPDEST PUSH1 0x40 MLOAD DUP1 SWAP2 SUB SWAP1 REVERT JUMPDEST PUSH0 DUP1 JUMPDEST DUP3 DUP2 LT ISZERO PUSH2 0x181 JUMPI PUSH0 PUSH2 0xDB DUP6 DUP4 DUP2 MLOAD DUP2 LT PUSH2 0xCB JUMPI PUSH2 0xCA PUSH2 0x64B JUMP JUMPDEST JUMPDEST PUSH1 0x20 ADD ADD MLOAD PUSH1 0xF8 SHR PUSH1 0xF8 SHL PUSH2 0x18D JUMP JUMPDEST SWAP1 POP DUP4 PUSH1 0x1 DUP4 PUSH2 0xEB SWAP2 SWAP1 PUSH2 0x6A5 JUMP JUMPDEST LT ISZERO PUSH2 0x15E JUMPI PUSH0 PUSH2 0x124 DUP7 PUSH1 0x1 DUP6 PUSH2 0x103 SWAP2 SWAP1 PUSH2 0x6A5 JUMP JUMPDEST DUP2 MLOAD DUP2 LT PUSH2 0x114 JUMPI PUSH2 0x113 PUSH2 0x64B JUMP JUMPDEST JUMPDEST PUSH1 0x20 ADD ADD MLOAD PUSH1 0xF8 SHR PUSH1 0xF8 SHL PUSH2 0x18D JUMP JUMPDEST SWAP1 POP DUP1 DUP3 LT ISZERO PUSH2 0x15C JUMPI DUP2 DUP2 PUSH2 0x13A SWAP2 SWAP1 PUSH2 0x6D8 JUMP JUMPDEST DUP5 PUSH2 0x145 SWAP2 SWAP1 PUSH2 0x6A5 JUMP JUMPDEST SWAP4 POP DUP3 DUP1 PUSH2 0x152 SWAP1 PUSH2 0x70B JUMP JUMPDEST SWAP4 POP POP POP POP PUSH2 0x16E JUMP JUMPDEST POP JUMPDEST DUP1 DUP4 PUSH2 0x16A SWAP2 SWAP1 PUSH2 0x6A5 JUMP JUMPDEST SWAP3 POP POP JUMPDEST DUP1 DUP1 PUSH2 0x179 SWAP1 PUSH2 0x70B JUMP JUMPDEST SWAP2 POP POP PUSH2 0xAC JUMP JUMPDEST POP DUP1 SWAP4 POP POP POP POP SWAP2 SWAP1 POP JUMP JUMPDEST PUSH0 PUSH32 0x4900000000000000000000000000000000000000000000000000000000000000 DUP3 PUSH31 0xFFFFFFFFFFFFFFFFFFFFFFFFFFFFFFFFFFFFFFFFFFFFFFFFFFFFFFFFFFFFFF NOT AND SUB PUSH2 0x1E0 JUMPI PUSH1 0x1 SWAP1 POP PUSH2 0x409 JUMP JUMPDEST PUSH32 0x5600000000000000000000000000000000000000000000000000000000000000 DUP3 PUSH31 0xFFFFFFFFFFFFFFFFFFFFFFFFFFFFFFFFFFFFFFFFFFFFFFFFFFFFFFFFFFFFFF NOT AND SUB PUSH2 0x232 JUMPI PUSH1 0x5 SWAP1 POP PUSH2 0x409 JUMP JUMPDEST PUSH32 0x5800000000000000000000000000000000000000000000000000000000000000 DUP3 PUSH31 0xFFFFFFFFFFFFFFFFFFFFFFFFFFFFFFFFFFFFFFFFFFFFFFFFFFFFFFFFFFFFFF NOT AND SUB PUSH2 0x284 JUMPI PUSH1 0xA SWAP1 POP PUSH2 0x409 JUMP JUMPDEST PUSH32 0x4C00000000000000000000000000000000000000000000000000000000000000 DUP3 PUSH31 0xFFFFFFFFFFFFFFFFFFFFFFFFFFFFFFFFFFFFFFFFFFFFFFFFFFFFFFFFFFFFFF NOT AND SUB PUSH2 0x2D6 JUMPI PUSH1 0x32 SWAP1 POP PUSH2 0x409 JUMP JUMPDEST PUSH32 0x4300000000000000000000000000000000000000000000000000000000000000 DUP3 PUSH31 0xFFFFFFFFFFFFFFFFFFFFFFFFFFFFFFFFFFFFFFFFFFFFFFFFFFFFFFFFFFFFFF NOT AND SUB PUSH2 0x328 JUMPI PUSH1 0x64 SWAP1 POP PUSH2 0x409 JUMP JUMPDEST PUSH32 0x4400000000000000000000000000000000000000000000000000000000000000 DUP3 PUSH31 0xFFFFFFFFFFFFFFFFFFFFFFFFFFFFFFFFFFFFFFFFFFFFFFFFFFFFFFFFFFFFFF NOT AND SUB PUSH2 0x37B JUMPI PUSH2 0x1F4 SWAP1 POP PUSH2 0x409 JUMP JUMPDEST PUSH32 0x4D00000000000000000000000000000000000000000000000000000000000000 DUP3 PUSH31 0xFFFFFFFFFFFFFFFFFFFFFFFFFFFFFFFFFFFFFFFFFFFFFFFFFFFFFFFFFFFFFF NOT AND SUB PUSH2 0x3CE JUMPI PUSH2 0x3E8 SWAP1 POP PUSH2 0x409 JUMP JUMPDEST PUSH1 0x40 MLOAD PUSH32 0x8C379A000000000000000000000000000000000000000000000000000000000 DUP2 MSTORE PUSH1 0x4 ADD PUSH2 0x400 SWAP1 PUSH2 0x79C JUMP JUMPDEST PUSH1 0x40 MLOAD DUP1 SWAP2 SUB SWAP1 REVERT JUMPDEST SWAP2 SWAP1 POP JUMP JUMPDEST PUSH0 PUSH1 0x40 MLOAD SWAP1 POP SWAP1 JUMP JUMPDEST PUSH0 DUP1 REVERT JUMPDEST PUSH0 DUP1 REVERT JUMPDEST PUSH0 DUP1 REVERT JUMPDEST PUSH0 DUP1 REVERT JUMPDEST PUSH0 PUSH1 0x1F NOT PUSH1 0x1F DUP4 ADD AND SWAP1 POP SWAP2 SWAP1 POP JUMP JUMPDEST PUSH32 0x4E487B7100000000000000000000000000000000000000000000000000000000 PUSH0 MSTORE PUSH1 0x41 PUSH1 0x4 MSTORE PUSH1 0x24 PUSH0 REVERT JUMPDEST PUSH2 0x46D DUP3 PUSH2 0x427 JUMP JUMPDEST DUP2 ADD DUP2 DUP2 LT PUSH8 0xFFFFFFFFFFFFFFFF DUP3 GT OR ISZERO PUSH2 0x48C JUMPI PUSH2 0x48B PUSH2 0x437 JUMP JUMPDEST JUMPDEST DUP1 PUSH1 0x40 MSTORE POP POP POP JUMP JUMPDEST PUSH0 PUSH2 0x49E PUSH2 0x40E JUMP JUMPDEST SWAP1 POP PUSH2 0x4AA DUP3 DUP3 PUSH2 0x464 JUMP JUMPDEST SWAP2 SWAP1 POP JUMP JUMPDEST PUSH0 PUSH8 0xFFFFFFFFFFFFFFFF DUP3 GT ISZERO PUSH2 0x4C9 JUMPI PUSH2 0x4C8 PUSH2 0x437 JUMP JUMPDEST JUMPDEST PUSH2 0x4D2 DUP3 PUSH2 0x427 JUMP JUMPDEST SWAP1 POP PUSH1 0x20 DUP2 ADD SWAP1 POP SWAP2 SWAP1 POP JUMP JUMPDEST DUP3 DUP2 DUP4 CALLDATACOPY PUSH0 DUP4 DUP4 ADD MSTORE POP POP POP JUMP JUMPDEST PUSH0 PUSH2 0x4FF PUSH2 0x4FA DUP5 PUSH2 0x4AF JUMP JUMPDEST PUSH2 0x495 JUMP JUMPDEST SWAP1 POP DUP3 DUP2 MSTORE PUSH1 0x20 DUP2 ADD DUP5 DUP5 DUP5 ADD GT ISZERO PUSH2 0x51B JUMPI PUSH2 0x51A PUSH2 0x423 JUMP JUMPDEST JUMPDEST PUSH2 0x526 DUP5 DUP3 DUP6 PUSH2 0x4DF JUMP JUMPDEST POP SWAP4 SWAP3 POP POP POP JUMP JUMPDEST PUSH0 DUP3 PUSH1 0x1F DUP4 ADD SLT PUSH2 0x542 JUMPI PUSH2 0x541 PUSH2 0x41F JUMP JUMPDEST JUMPDEST DUP2 CALLDATALOAD PUSH2 0x552 DUP5 DUP3 PUSH1 0x20 DUP7 ADD PUSH2 0x4ED JUMP JUMPDEST SWAP2 POP POP SWAP3 SWAP2 POP POP JUMP JUMPDEST PUSH0 PUSH1 0x20 DUP3 DUP5 SUB SLT ISZERO PUSH2 0x570 JUMPI PUSH2 0x56F PUSH2 0x417 JUMP JUMPDEST JUMPDEST PUSH0 DUP3 ADD CALLDATALOAD PUSH8 0xFFFFFFFFFFFFFFFF DUP2 GT ISZERO PUSH2 0x58D JUMPI PUSH2 0x58C PUSH2 0x41B JUMP JUMPDEST JUMPDEST PUSH2 0x599 DUP5 DUP3 DUP6 ADD PUSH2 0x52E JUMP JUMPDEST SWAP2 POP POP SWAP3 SWAP2 POP POP JUMP JUMPDEST PUSH0 DUP2 SWAP1 POP SWAP2 SWAP1 POP JUMP JUMPDEST PUSH2 0x5B4 DUP2 PUSH2 0x5A2 JUMP JUMPDEST DUP3 MSTORE POP POP JUMP JUMPDEST PUSH0 PUSH1 0x20 DUP3 ADD SWAP1 POP PUSH2 0x5CD PUSH0 DUP4 ADD DUP5 PUSH2 0x5AB JUMP JUMPDEST SWAP3 SWAP2 POP POP JUMP JUMPDEST PUSH0 DUP3 DUP3 MSTORE PUSH1 0x20 DUP3 ADD SWAP1 POP SWAP3 SWAP2 POP POP JUMP JUMPDEST PUSH32 0x526F6D616E206E756D6265722063616E6E6F7420656D70747900000000000000 PUSH0 DUP3 ADD MSTORE POP JUMP JUMPDEST PUSH0 PUSH2 0x617 PUSH1 0x19 DUP4 PUSH2 0x5D3 JUMP JUMPDEST SWAP2 POP PUSH2 0x622 DUP3 PUSH2 0x5E3 JUMP JUMPDEST PUSH1 0x20 DUP3 ADD SWAP1 POP SWAP2 SWAP1 POP JUMP JUMPDEST PUSH0 PUSH1 0x20 DUP3 ADD SWAP1 POP DUP2 DUP2 SUB PUSH0 DUP4 ADD MSTORE PUSH2 0x644 DUP2 PUSH2 0x60B JUMP JUMPDEST SWAP1 POP SWAP2 SWAP1 POP JUMP JUMPDEST PUSH32 0x4E487B7100000000000000000000000000000000000000000000000000000000 PUSH0 MSTORE PUSH1 0x32 PUSH1 0x4 MSTORE PUSH1 0x24 PUSH0 REVERT JUMPDEST PUSH32 0x4E487B7100000000000000000000000000000000000000000000000000000000 PUSH0 MSTORE PUSH1 0x11 PUSH1 0x4 MSTORE PUSH1 0x24 PUSH0 REVERT JUMPDEST PUSH0 PUSH2 0x6AF DUP3 PUSH2 0x5A2 JUMP JUMPDEST SWAP2 POP PUSH2 0x6BA DUP4 PUSH2 0x5A2 JUMP JUMPDEST SWAP3 POP DUP3 DUP3 ADD SWAP1 POP DUP1 DUP3 GT ISZERO PUSH2 0x6D2 JUMPI PUSH2 0x6D1 PUSH2 0x678 JUMP JUMPDEST JUMPDEST SWAP3 SWAP2 POP POP JUMP JUMPDEST PUSH0 PUSH2 0x6E2 DUP3 PUSH2 0x5A2 JUMP JUMPDEST SWAP2 POP PUSH2 0x6ED DUP4 PUSH2 0x5A2 JUMP JUMPDEST SWAP3 POP DUP3 DUP3 SUB SWAP1 POP DUP2 DUP2 GT ISZERO PUSH2 0x705 JUMPI PUSH2 0x704 PUSH2 0x678 JUMP JUMPDEST JUMPDEST SWAP3 SWAP2 POP POP JUMP JUMPDEST PUSH0 PUSH2 0x715 DUP3 PUSH2 0x5A2 JUMP JUMPDEST SWAP2 POP PUSH32 0xFFFFFFFFFFFFFFFFFFFFFFFFFFFFFFFFFFFFFFFFFFFFFFFFFFFFFFFFFFFFFFFF DUP3 SUB PUSH2 0x747 JUMPI PUSH2 0x746 PUSH2 0x678 JUMP JUMPDEST JUMPDEST PUSH1 0x1 DUP3 ADD SWAP1 POP SWAP2 SWAP1 POP JUMP JUMPDEST PUSH32 0x496E76616C696420526F6D616E20636861726163746572000000000000000000 PUSH0 DUP3 ADD MSTORE POP JUMP JUMPDEST PUSH0 PUSH2 0x786 PUSH1 0x17 DUP4 PUSH2 0x5D3 JUMP JUMPDEST SWAP2 POP PUSH2 0x791 DUP3 PUSH2 0x752 JUMP JUMPDEST PUSH1 0x20 DUP3 ADD SWAP1 POP SWAP2 SWAP1 POP JUMP JUMPDEST PUSH0 PUSH1 0x20 DUP3 ADD SWAP1 POP DUP2 DUP2 SUB PUSH0 DUP4 ADD MSTORE PUSH2 0x7B3 DUP2 PUSH2 0x77A JUMP JUMPDEST SWAP1 POP SWAP2 SWAP1 POP JUMP INVALID LOG2 PUSH5 0x6970667358 0x22 SLT KECCAK256 NUMBER LT CALLDATALOAD TIMESTAMP 0x22 CALL 0xF6 MSTORE8 SWAP1 PUSH9 0x9EC29CEA957E5246B5 0x2B 0xEF 0x24 0xE 0xA5 0xD PUSH23 0xFCA4FB6C864A64736F6C634300081A0033000000000000 "
				},
				"gasEstimates": {
					"creation": {
						"codeDepositCost": "406400",
						"executionCost": "155834",
						"totalCost": "562234"
					},
					"external": {
						"romanToInt(string)": "infinite"
					},
					"internal": {
						"getRomanValue(bytes1)": "infinite"
					}
				},
				"methodIdentifiers": {
					"romanToInt(string)": "cb159dfe"
				}
			},
			"storageLayout": {
				"storage": [
					{
						"astId": 5,
						"contract": "RomanToInt.sol:RomanToInt",
						"label": "romanValues",
						"offset": 0,
						"slot": "0",
						"type": "t_mapping(t_bytes1,t_uint256)"
					}
				],
				"types": {
					"t_bytes1": {
						"encoding": "inplace",
						"label": "bytes1",
						"numberOfBytes": "1"
					},
					"t_mapping(t_bytes1,t_uint256)": {
						"encoding": "mapping",
						"key": "t_bytes1",
						"label": "mapping(bytes1 => uint256)",
						"numberOfBytes": "32",
						"value": "t_uint256"
					},
					"t_uint256": {
						"encoding": "inplace",
						"label": "uint256",
						"numberOfBytes": "32"
					}
				}
			},
			"userdoc": {
				"kind": "user",
				"methods": {},
				"version": 1
			}
		}
	}
}